{
	"contracts/Enum.sol": {
		"EnumUsage": {
			"abi": [
				{
					"inputs": [],
					"stateMutability": "nonpayable",
					"type": "constructor"
				},
				{
					"inputs": [],
					"name": "Activate",
					"outputs": [],
					"stateMutability": "nonpayable",
					"type": "function"
				},
				{
					"inputs": [],
					"name": "Ready",
					"outputs": [],
					"stateMutability": "nonpayable",
					"type": "function"
				},
				{
					"inputs": [],
					"name": "Waiting",
					"outputs": [],
					"stateMutability": "nonpayable",
					"type": "function"
				},
				{
					"inputs": [],
					"name": "isActive",
					"outputs": [
						{
							"internalType": "bool",
							"name": "",
							"type": "bool"
						}
					],
					"stateMutability": "view",
					"type": "function"
				},
				{
					"inputs": [],
					"name": "isReady",
					"outputs": [
						{
							"internalType": "bool",
							"name": "",
							"type": "bool"
						}
					],
					"stateMutability": "view",
					"type": "function"
				},
				{
					"inputs": [],
					"name": "isWaiting",
					"outputs": [
						{
							"internalType": "bool",
							"name": "",
							"type": "bool"
						}
					],
					"stateMutability": "view",
					"type": "function"
				},
				{
					"inputs": [],
					"name": "state",
					"outputs": [
						{
							"internalType": "enum EnumUsage.State",
							"name": "",
							"type": "uint8"
						}
					],
					"stateMutability": "view",
					"type": "function"
				}
			],
			"devdoc": {
				"kind": "dev",
				"methods": {},
				"version": 1
			},
			"evm": {
				"assembly": "    /* \"contracts/Enum.sol\":71:717  contract EnumUsage{... */\n  mstore(0x40, 0x80)\n    /* \"contracts/Enum.sol\":161:214  constructor(){... */\n  callvalue\n  dup1\n  iszero\n  tag_1\n  jumpi\n  0x00\n  dup1\n  revert\ntag_1:\n  pop\n    /* \"contracts/Enum.sol\":193:206  State.Waiting */\n  0x00\n    /* \"contracts/Enum.sol\":185:190  state */\n  dup1\n  0x00\n    /* \"contracts/Enum.sol\":185:206  state = State.Waiting */\n  0x0100\n  exp\n  dup2\n  sload\n  dup2\n  0xff\n  mul\n  not\n  and\n  swap1\n  dup4\n  0x02\n  dup2\n  gt\n  iszero\n  tag_4\n  jumpi\n  tag_5\n  tag_6\n  jump\t// in\ntag_5:\ntag_4:\n  mul\n  or\n  swap1\n  sstore\n  pop\n    /* \"contracts/Enum.sol\":71:717  contract EnumUsage{... */\n  jump(tag_7)\n    /* \"#utility.yul\":7:187   */\ntag_6:\n    /* \"#utility.yul\":55:132   */\n  0x4e487b7100000000000000000000000000000000000000000000000000000000\n    /* \"#utility.yul\":52:53   */\n  0x00\n    /* \"#utility.yul\":45:133   */\n  mstore\n    /* \"#utility.yul\":152:156   */\n  0x21\n    /* \"#utility.yul\":149:150   */\n  0x04\n    /* \"#utility.yul\":142:157   */\n  mstore\n    /* \"#utility.yul\":176:180   */\n  0x24\n    /* \"#utility.yul\":173:174   */\n  0x00\n    /* \"#utility.yul\":166:181   */\n  revert\n    /* \"contracts/Enum.sol\":71:717  contract EnumUsage{... */\ntag_7:\n  dataSize(sub_0)\n  dup1\n  dataOffset(sub_0)\n  0x00\n  codecopy\n  0x00\n  return\nstop\n\nsub_0: assembly {\n        /* \"contracts/Enum.sol\":71:717  contract EnumUsage{... */\n      mstore(0x40, 0x80)\n      callvalue\n      dup1\n      iszero\n      tag_1\n      jumpi\n      0x00\n      dup1\n      revert\n    tag_1:\n      pop\n      jumpi(tag_2, lt(calldatasize, 0x04))\n      shr(0xe0, calldataload(0x00))\n      dup1\n      0x6e12fa0f\n      gt\n      tag_10\n      jumpi\n      dup1\n      0x6e12fa0f\n      eq\n      tag_6\n      jumpi\n      dup1\n      0x7fecd538\n      eq\n      tag_7\n      jumpi\n      dup1\n      0xa094a031\n      eq\n      tag_8\n      jumpi\n      dup1\n      0xc19d93fb\n      eq\n      tag_9\n      jumpi\n      jump(tag_2)\n    tag_10:\n      dup1\n      0x22f3e2d4\n      eq\n      tag_3\n      jumpi\n      dup1\n      0x4f80b579\n      eq\n      tag_4\n      jumpi\n      dup1\n      0x59d3ce47\n      eq\n      tag_5\n      jumpi\n    tag_2:\n      0x00\n      dup1\n      revert\n        /* \"contracts/Enum.sol\":291:381  function isActive() public view returns(bool){... */\n    tag_3:\n      tag_11\n      tag_12\n      jump\t// in\n    tag_11:\n      mload(0x40)\n      tag_13\n      swap2\n      swap1\n      tag_14\n      jump\t// in\n    tag_13:\n      mload(0x40)\n      dup1\n      swap2\n      sub\n      swap1\n      return\n        /* \"contracts/Enum.sol\":387:452  function Waiting() public{... */\n    tag_4:\n      tag_15\n      tag_16\n      jump\t// in\n    tag_15:\n      stop\n        /* \"contracts/Enum.sol\":220:285  function Activate() public{... */\n    tag_5:\n      tag_17\n      tag_18\n      jump\t// in\n    tag_17:\n      stop\n        /* \"contracts/Enum.sol\":558:619  function Ready() public{... */\n    tag_6:\n      tag_19\n      tag_20\n      jump\t// in\n    tag_19:\n      stop\n        /* \"contracts/Enum.sol\":458:552  function isWaiting() public view returns(bool){... */\n    tag_7:\n      tag_21\n      tag_22\n      jump\t// in\n    tag_21:\n      mload(0x40)\n      tag_23\n      swap2\n      swap1\n      tag_14\n      jump\t// in\n    tag_23:\n      mload(0x40)\n      dup1\n      swap2\n      sub\n      swap1\n      return\n        /* \"contracts/Enum.sol\":625:714  function isReady() public view returns(bool){... */\n    tag_8:\n      tag_24\n      tag_25\n      jump\t// in\n    tag_24:\n      mload(0x40)\n      tag_26\n      swap2\n      swap1\n      tag_14\n      jump\t// in\n    tag_26:\n      mload(0x40)\n      dup1\n      swap2\n      sub\n      swap1\n      return\n        /* \"contracts/Enum.sol\":134:152  State public state */\n    tag_9:\n      tag_27\n      tag_28\n      jump\t// in\n    tag_27:\n      mload(0x40)\n      tag_29\n      swap2\n      swap1\n      tag_30\n      jump\t// in\n    tag_29:\n      mload(0x40)\n      dup1\n      swap2\n      sub\n      swap1\n      return\n        /* \"contracts/Enum.sol\":291:381  function isActive() public view returns(bool){... */\n    tag_12:\n        /* \"contracts/Enum.sol\":331:335  bool */\n      0x00\n        /* \"contracts/Enum.sol\":361:373  State.Active */\n      0x02\n        /* \"contracts/Enum.sol\":354:373  state==State.Active */\n      dup1\n      dup2\n      gt\n      iszero\n      tag_32\n      jumpi\n      tag_33\n      tag_34\n      jump\t// in\n    tag_33:\n    tag_32:\n        /* \"contracts/Enum.sol\":354:359  state */\n      0x00\n      dup1\n      sload\n      swap1\n      0x0100\n      exp\n      swap1\n      div\n      0xff\n      and\n        /* \"contracts/Enum.sol\":354:373  state==State.Active */\n      0x02\n      dup2\n      gt\n      iszero\n      tag_35\n      jumpi\n      tag_36\n      tag_34\n      jump\t// in\n    tag_36:\n    tag_35:\n      eq\n        /* \"contracts/Enum.sol\":347:373  return state==State.Active */\n      swap1\n      pop\n        /* \"contracts/Enum.sol\":291:381  function isActive() public view returns(bool){... */\n      swap1\n      jump\t// out\n        /* \"contracts/Enum.sol\":387:452  function Waiting() public{... */\n    tag_16:\n        /* \"contracts/Enum.sol\":431:444  State.Waiting */\n      0x00\n        /* \"contracts/Enum.sol\":423:428  state */\n      dup1\n      0x00\n        /* \"contracts/Enum.sol\":423:444  state = State.Waiting */\n      0x0100\n      exp\n      dup2\n      sload\n      dup2\n      0xff\n      mul\n      not\n      and\n      swap1\n      dup4\n      0x02\n      dup2\n      gt\n      iszero\n      tag_38\n      jumpi\n      tag_39\n      tag_34\n      jump\t// in\n    tag_39:\n    tag_38:\n      mul\n      or\n      swap1\n      sstore\n      pop\n        /* \"contracts/Enum.sol\":387:452  function Waiting() public{... */\n      jump\t// out\n        /* \"contracts/Enum.sol\":220:285  function Activate() public{... */\n    tag_18:\n        /* \"contracts/Enum.sol\":265:277  State.Active */\n      0x02\n        /* \"contracts/Enum.sol\":257:262  state */\n      0x00\n      dup1\n        /* \"contracts/Enum.sol\":257:277  state = State.Active */\n      0x0100\n      exp\n      dup2\n      sload\n      dup2\n      0xff\n      mul\n      not\n      and\n      swap1\n      dup4\n      0x02\n      dup2\n      gt\n      iszero\n      tag_41\n      jumpi\n      tag_42\n      tag_34\n      jump\t// in\n    tag_42:\n    tag_41:\n      mul\n      or\n      swap1\n      sstore\n      pop\n        /* \"contracts/Enum.sol\":220:285  function Activate() public{... */\n      jump\t// out\n        /* \"contracts/Enum.sol\":558:619  function Ready() public{... */\n    tag_20:\n        /* \"contracts/Enum.sol\":600:611  State.Ready */\n      0x01\n        /* \"contracts/Enum.sol\":592:597  state */\n      0x00\n      dup1\n        /* \"contracts/Enum.sol\":592:611  state = State.Ready */\n      0x0100\n      exp\n      dup2\n      sload\n      dup2\n      0xff\n      mul\n      not\n      and\n      swap1\n      dup4\n      0x02\n      dup2\n      gt\n      iszero\n      tag_44\n      jumpi\n      tag_45\n      tag_34\n      jump\t// in\n    tag_45:\n    tag_44:\n      mul\n      or\n      swap1\n      sstore\n      pop\n        /* \"contracts/Enum.sol\":558:619  function Ready() public{... */\n      jump\t// out\n        /* \"contracts/Enum.sol\":458:552  function isWaiting() public view returns(bool){... */\n    tag_22:\n        /* \"contracts/Enum.sol\":499:503  bool */\n      0x00\n        /* \"contracts/Enum.sol\":531:544  State.Waiting */\n      dup1\n        /* \"contracts/Enum.sol\":522:544  state == State.Waiting */\n      0x02\n      dup2\n      gt\n      iszero\n      tag_47\n      jumpi\n      tag_48\n      tag_34\n      jump\t// in\n    tag_48:\n    tag_47:\n        /* \"contracts/Enum.sol\":522:527  state */\n      0x00\n      dup1\n      sload\n      swap1\n      0x0100\n      exp\n      swap1\n      div\n      0xff\n      and\n        /* \"contracts/Enum.sol\":522:544  state == State.Waiting */\n      0x02\n      dup2\n      gt\n      iszero\n      tag_49\n      jumpi\n      tag_50\n      tag_34\n      jump\t// in\n    tag_50:\n    tag_49:\n      eq\n        /* \"contracts/Enum.sol\":515:544  return state == State.Waiting */\n      swap1\n      pop\n        /* \"contracts/Enum.sol\":458:552  function isWaiting() public view returns(bool){... */\n      swap1\n      jump\t// out\n        /* \"contracts/Enum.sol\":625:714  function isReady() public view returns(bool){... */\n    tag_25:\n        /* \"contracts/Enum.sol\":664:668  bool */\n      0x00\n        /* \"contracts/Enum.sol\":695:706  State.Ready */\n      0x01\n        /* \"contracts/Enum.sol\":686:706  state == State.Ready */\n      0x02\n      dup2\n      gt\n      iszero\n      tag_52\n      jumpi\n      tag_53\n      tag_34\n      jump\t// in\n    tag_53:\n    tag_52:\n        /* \"contracts/Enum.sol\":686:691  state */\n      0x00\n      dup1\n      sload\n      swap1\n      0x0100\n      exp\n      swap1\n      div\n      0xff\n      and\n        /* \"contracts/Enum.sol\":686:706  state == State.Ready */\n      0x02\n      dup2\n      gt\n      iszero\n      tag_54\n      jumpi\n      tag_55\n      tag_34\n      jump\t// in\n    tag_55:\n    tag_54:\n      eq\n        /* \"contracts/Enum.sol\":679:706  return state == State.Ready */\n      swap1\n      pop\n        /* \"contracts/Enum.sol\":625:714  function isReady() public view returns(bool){... */\n      swap1\n      jump\t// out\n        /* \"contracts/Enum.sol\":134:152  State public state */\n    tag_28:\n      0x00\n      dup1\n      sload\n      swap1\n      0x0100\n      exp\n      swap1\n      div\n      0xff\n      and\n      dup2\n      jump\t// out\n        /* \"#utility.yul\":7:97   */\n    tag_56:\n        /* \"#utility.yul\":41:48   */\n      0x00\n        /* \"#utility.yul\":84:89   */\n      dup2\n        /* \"#utility.yul\":77:90   */\n      iszero\n        /* \"#utility.yul\":70:91   */\n      iszero\n        /* \"#utility.yul\":59:91   */\n      swap1\n      pop\n        /* \"#utility.yul\":7:97   */\n      swap2\n      swap1\n      pop\n      jump\t// out\n        /* \"#utility.yul\":103:212   */\n    tag_57:\n        /* \"#utility.yul\":184:205   */\n      tag_65\n        /* \"#utility.yul\":199:204   */\n      dup2\n        /* \"#utility.yul\":184:205   */\n      tag_56\n      jump\t// in\n    tag_65:\n        /* \"#utility.yul\":179:182   */\n      dup3\n        /* \"#utility.yul\":172:206   */\n      mstore\n        /* \"#utility.yul\":103:212   */\n      pop\n      pop\n      jump\t// out\n        /* \"#utility.yul\":218:428   */\n    tag_14:\n        /* \"#utility.yul\":305:309   */\n      0x00\n        /* \"#utility.yul\":343:345   */\n      0x20\n        /* \"#utility.yul\":332:341   */\n      dup3\n        /* \"#utility.yul\":328:346   */\n      add\n        /* \"#utility.yul\":320:346   */\n      swap1\n      pop\n        /* \"#utility.yul\":356:421   */\n      tag_67\n        /* \"#utility.yul\":418:419   */\n      0x00\n        /* \"#utility.yul\":407:416   */\n      dup4\n        /* \"#utility.yul\":403:420   */\n      add\n        /* \"#utility.yul\":394:400   */\n      dup5\n        /* \"#utility.yul\":356:421   */\n      tag_57\n      jump\t// in\n    tag_67:\n        /* \"#utility.yul\":218:428   */\n      swap3\n      swap2\n      pop\n      pop\n      jump\t// out\n        /* \"#utility.yul\":434:614   */\n    tag_34:\n        /* \"#utility.yul\":482:559   */\n      0x4e487b7100000000000000000000000000000000000000000000000000000000\n        /* \"#utility.yul\":479:480   */\n      0x00\n        /* \"#utility.yul\":472:560   */\n      mstore\n        /* \"#utility.yul\":579:583   */\n      0x21\n        /* \"#utility.yul\":576:577   */\n      0x04\n        /* \"#utility.yul\":569:584   */\n      mstore\n        /* \"#utility.yul\":603:607   */\n      0x24\n        /* \"#utility.yul\":600:601   */\n      0x00\n        /* \"#utility.yul\":593:608   */\n      revert\n        /* \"#utility.yul\":620:732   */\n    tag_58:\n        /* \"#utility.yul\":700:701   */\n      0x03\n        /* \"#utility.yul\":693:698   */\n      dup2\n        /* \"#utility.yul\":690:702   */\n      lt\n        /* \"#utility.yul\":680:726   */\n      tag_70\n      jumpi\n        /* \"#utility.yul\":706:724   */\n      tag_71\n      tag_34\n      jump\t// in\n    tag_71:\n        /* \"#utility.yul\":680:726   */\n    tag_70:\n        /* \"#utility.yul\":620:732   */\n      pop\n      jump\t// out\n        /* \"#utility.yul\":738:863   */\n    tag_59:\n        /* \"#utility.yul\":782:789   */\n      0x00\n        /* \"#utility.yul\":811:816   */\n      dup2\n        /* \"#utility.yul\":800:816   */\n      swap1\n      pop\n        /* \"#utility.yul\":817:857   */\n      tag_73\n        /* \"#utility.yul\":851:856   */\n      dup3\n        /* \"#utility.yul\":817:857   */\n      tag_58\n      jump\t// in\n    tag_73:\n        /* \"#utility.yul\":738:863   */\n      swap2\n      swap1\n      pop\n      jump\t// out\n        /* \"#utility.yul\":869:994   */\n    tag_60:\n        /* \"#utility.yul\":924:933   */\n      0x00\n        /* \"#utility.yul\":957:988   */\n      tag_75\n        /* \"#utility.yul\":982:987   */\n      dup3\n        /* \"#utility.yul\":957:988   */\n      tag_59\n      jump\t// in\n    tag_75:\n        /* \"#utility.yul\":944:988   */\n      swap1\n      pop\n        /* \"#utility.yul\":869:994   */\n      swap2\n      swap1\n      pop\n      jump\t// out\n        /* \"#utility.yul\":1000:1141   */\n    tag_61:\n        /* \"#utility.yul\":1092:1134   */\n      tag_77\n        /* \"#utility.yul\":1128:1133   */\n      dup2\n        /* \"#utility.yul\":1092:1134   */\n      tag_60\n      jump\t// in\n    tag_77:\n        /* \"#utility.yul\":1087:1090   */\n      dup3\n        /* \"#utility.yul\":1080:1135   */\n      mstore\n        /* \"#utility.yul\":1000:1141   */\n      pop\n      pop\n      jump\t// out\n        /* \"#utility.yul\":1147:1379   */\n    tag_30:\n        /* \"#utility.yul\":1245:1249   */\n      0x00\n        /* \"#utility.yul\":1283:1285   */\n      0x20\n        /* \"#utility.yul\":1272:1281   */\n      dup3\n        /* \"#utility.yul\":1268:1286   */\n      add\n        /* \"#utility.yul\":1260:1286   */\n      swap1\n      pop\n        /* \"#utility.yul\":1296:1372   */\n      tag_79\n        /* \"#utility.yul\":1369:1370   */\n      0x00\n        /* \"#utility.yul\":1358:1367   */\n      dup4\n        /* \"#utility.yul\":1354:1371   */\n      add\n        /* \"#utility.yul\":1345:1351   */\n      dup5\n        /* \"#utility.yul\":1296:1372   */\n      tag_61\n      jump\t// in\n    tag_79:\n        /* \"#utility.yul\":1147:1379   */\n      swap3\n      swap2\n      pop\n      pop\n      jump\t// out\n\n    auxdata: 0xa2646970667358221220900af7873673c7ba9f8014ee11025708074f75b9eeed8c7f61f6e99dd032fced64736f6c634300081a0033\n}\n",
				"bytecode": {
					"linkReferences": {},
					"object": "6080604052348015600e575f80fd5b505f805f6101000a81548160ff02191690836002811115602f57602e6038565b5b02179055506065565b7f4e487b71000000000000000000000000000000000000000000000000000000005f52602160045260245ffd5b610346806100725f395ff3fe608060405234801561000f575f80fd5b506004361061007b575f3560e01c80636e12fa0f116100595780636e12fa0f146100b15780637fecd538146100bb578063a094a031146100d9578063c19d93fb146100f75761007b565b806322f3e2d41461007f5780634f80b5791461009d57806359d3ce47146100a7575b5f80fd5b610087610115565b604051610094919061026b565b60405180910390f35b6100a561014e565b005b6100af610178565b005b6100b96101a3565b005b6100c36101ce565b6040516100d0919061026b565b60405180910390f35b6100e1610207565b6040516100ee919061026b565b60405180910390f35b6100ff610241565b60405161010c91906102f7565b60405180910390f35b5f60028081111561012957610128610284565b5b5f8054906101000a900460ff16600281111561014857610147610284565b5b14905090565b5f805f6101000a81548160ff0219169083600281111561017157610170610284565b5b0217905550565b60025f806101000a81548160ff0219169083600281111561019c5761019b610284565b5b0217905550565b60015f806101000a81548160ff021916908360028111156101c7576101c6610284565b5b0217905550565b5f8060028111156101e2576101e1610284565b5b5f8054906101000a900460ff16600281111561020157610200610284565b5b14905090565b5f6001600281111561021c5761021b610284565b5b5f8054906101000a900460ff16600281111561023b5761023a610284565b5b14905090565b5f8054906101000a900460ff1681565b5f8115159050919050565b61026581610251565b82525050565b5f60208201905061027e5f83018461025c565b92915050565b7f4e487b71000000000000000000000000000000000000000000000000000000005f52602160045260245ffd5b600381106102c2576102c1610284565b5b50565b5f8190506102d2826102b1565b919050565b5f6102e1826102c5565b9050919050565b6102f1816102d7565b82525050565b5f60208201905061030a5f8301846102e8565b9291505056fea2646970667358221220900af7873673c7ba9f8014ee11025708074f75b9eeed8c7f61f6e99dd032fced64736f6c634300081a0033",
					"opcodes": "PUSH1 0x80 PUSH1 0x40 MSTORE CALLVALUE DUP1 ISZERO PUSH1 0xE JUMPI PUSH0 DUP1 REVERT JUMPDEST POP PUSH0 DUP1 PUSH0 PUSH2 0x100 EXP DUP2 SLOAD DUP2 PUSH1 0xFF MUL NOT AND SWAP1 DUP4 PUSH1 0x2 DUP2 GT ISZERO PUSH1 0x2F JUMPI PUSH1 0x2E PUSH1 0x38 JUMP JUMPDEST JUMPDEST MUL OR SWAP1 SSTORE POP PUSH1 0x65 JUMP JUMPDEST PUSH32 0x4E487B7100000000000000000000000000000000000000000000000000000000 PUSH0 MSTORE PUSH1 0x21 PUSH1 0x4 MSTORE PUSH1 0x24 PUSH0 REVERT JUMPDEST PUSH2 0x346 DUP1 PUSH2 0x72 PUSH0 CODECOPY PUSH0 RETURN INVALID PUSH1 0x80 PUSH1 0x40 MSTORE CALLVALUE DUP1 ISZERO PUSH2 0xF JUMPI PUSH0 DUP1 REVERT JUMPDEST POP PUSH1 0x4 CALLDATASIZE LT PUSH2 0x7B JUMPI PUSH0 CALLDATALOAD PUSH1 0xE0 SHR DUP1 PUSH4 0x6E12FA0F GT PUSH2 0x59 JUMPI DUP1 PUSH4 0x6E12FA0F EQ PUSH2 0xB1 JUMPI DUP1 PUSH4 0x7FECD538 EQ PUSH2 0xBB JUMPI DUP1 PUSH4 0xA094A031 EQ PUSH2 0xD9 JUMPI DUP1 PUSH4 0xC19D93FB EQ PUSH2 0xF7 JUMPI PUSH2 0x7B JUMP JUMPDEST DUP1 PUSH4 0x22F3E2D4 EQ PUSH2 0x7F JUMPI DUP1 PUSH4 0x4F80B579 EQ PUSH2 0x9D JUMPI DUP1 PUSH4 0x59D3CE47 EQ PUSH2 0xA7 JUMPI JUMPDEST PUSH0 DUP1 REVERT JUMPDEST PUSH2 0x87 PUSH2 0x115 JUMP JUMPDEST PUSH1 0x40 MLOAD PUSH2 0x94 SWAP2 SWAP1 PUSH2 0x26B JUMP JUMPDEST PUSH1 0x40 MLOAD DUP1 SWAP2 SUB SWAP1 RETURN JUMPDEST PUSH2 0xA5 PUSH2 0x14E JUMP JUMPDEST STOP JUMPDEST PUSH2 0xAF PUSH2 0x178 JUMP JUMPDEST STOP JUMPDEST PUSH2 0xB9 PUSH2 0x1A3 JUMP JUMPDEST STOP JUMPDEST PUSH2 0xC3 PUSH2 0x1CE JUMP JUMPDEST PUSH1 0x40 MLOAD PUSH2 0xD0 SWAP2 SWAP1 PUSH2 0x26B JUMP JUMPDEST PUSH1 0x40 MLOAD DUP1 SWAP2 SUB SWAP1 RETURN JUMPDEST PUSH2 0xE1 PUSH2 0x207 JUMP JUMPDEST PUSH1 0x40 MLOAD PUSH2 0xEE SWAP2 SWAP1 PUSH2 0x26B JUMP JUMPDEST PUSH1 0x40 MLOAD DUP1 SWAP2 SUB SWAP1 RETURN JUMPDEST PUSH2 0xFF PUSH2 0x241 JUMP JUMPDEST PUSH1 0x40 MLOAD PUSH2 0x10C SWAP2 SWAP1 PUSH2 0x2F7 JUMP JUMPDEST PUSH1 0x40 MLOAD DUP1 SWAP2 SUB SWAP1 RETURN JUMPDEST PUSH0 PUSH1 0x2 DUP1 DUP2 GT ISZERO PUSH2 0x129 JUMPI PUSH2 0x128 PUSH2 0x284 JUMP JUMPDEST JUMPDEST PUSH0 DUP1 SLOAD SWAP1 PUSH2 0x100 EXP SWAP1 DIV PUSH1 0xFF AND PUSH1 0x2 DUP2 GT ISZERO PUSH2 0x148 JUMPI PUSH2 0x147 PUSH2 0x284 JUMP JUMPDEST JUMPDEST EQ SWAP1 POP SWAP1 JUMP JUMPDEST PUSH0 DUP1 PUSH0 PUSH2 0x100 EXP DUP2 SLOAD DUP2 PUSH1 0xFF MUL NOT AND SWAP1 DUP4 PUSH1 0x2 DUP2 GT ISZERO PUSH2 0x171 JUMPI PUSH2 0x170 PUSH2 0x284 JUMP JUMPDEST JUMPDEST MUL OR SWAP1 SSTORE POP JUMP JUMPDEST PUSH1 0x2 PUSH0 DUP1 PUSH2 0x100 EXP DUP2 SLOAD DUP2 PUSH1 0xFF MUL NOT AND SWAP1 DUP4 PUSH1 0x2 DUP2 GT ISZERO PUSH2 0x19C JUMPI PUSH2 0x19B PUSH2 0x284 JUMP JUMPDEST JUMPDEST MUL OR SWAP1 SSTORE POP JUMP JUMPDEST PUSH1 0x1 PUSH0 DUP1 PUSH2 0x100 EXP DUP2 SLOAD DUP2 PUSH1 0xFF MUL NOT AND SWAP1 DUP4 PUSH1 0x2 DUP2 GT ISZERO PUSH2 0x1C7 JUMPI PUSH2 0x1C6 PUSH2 0x284 JUMP JUMPDEST JUMPDEST MUL OR SWAP1 SSTORE POP JUMP JUMPDEST PUSH0 DUP1 PUSH1 0x2 DUP2 GT ISZERO PUSH2 0x1E2 JUMPI PUSH2 0x1E1 PUSH2 0x284 JUMP JUMPDEST JUMPDEST PUSH0 DUP1 SLOAD SWAP1 PUSH2 0x100 EXP SWAP1 DIV PUSH1 0xFF AND PUSH1 0x2 DUP2 GT ISZERO PUSH2 0x201 JUMPI PUSH2 0x200 PUSH2 0x284 JUMP JUMPDEST JUMPDEST EQ SWAP1 POP SWAP1 JUMP JUMPDEST PUSH0 PUSH1 0x1 PUSH1 0x2 DUP2 GT ISZERO PUSH2 0x21C JUMPI PUSH2 0x21B PUSH2 0x284 JUMP JUMPDEST JUMPDEST PUSH0 DUP1 SLOAD SWAP1 PUSH2 0x100 EXP SWAP1 DIV PUSH1 0xFF AND PUSH1 0x2 DUP2 GT ISZERO PUSH2 0x23B JUMPI PUSH2 0x23A PUSH2 0x284 JUMP JUMPDEST JUMPDEST EQ SWAP1 POP SWAP1 JUMP JUMPDEST PUSH0 DUP1 SLOAD SWAP1 PUSH2 0x100 EXP SWAP1 DIV PUSH1 0xFF AND DUP2 JUMP JUMPDEST PUSH0 DUP2 ISZERO ISZERO SWAP1 POP SWAP2 SWAP1 POP JUMP JUMPDEST PUSH2 0x265 DUP2 PUSH2 0x251 JUMP JUMPDEST DUP3 MSTORE POP POP JUMP JUMPDEST PUSH0 PUSH1 0x20 DUP3 ADD SWAP1 POP PUSH2 0x27E PUSH0 DUP4 ADD DUP5 PUSH2 0x25C JUMP JUMPDEST SWAP3 SWAP2 POP POP JUMP JUMPDEST PUSH32 0x4E487B7100000000000000000000000000000000000000000000000000000000 PUSH0 MSTORE PUSH1 0x21 PUSH1 0x4 MSTORE PUSH1 0x24 PUSH0 REVERT JUMPDEST PUSH1 0x3 DUP2 LT PUSH2 0x2C2 JUMPI PUSH2 0x2C1 PUSH2 0x284 JUMP JUMPDEST JUMPDEST POP JUMP JUMPDEST PUSH0 DUP2 SWAP1 POP PUSH2 0x2D2 DUP3 PUSH2 0x2B1 JUMP JUMPDEST SWAP2 SWAP1 POP JUMP JUMPDEST PUSH0 PUSH2 0x2E1 DUP3 PUSH2 0x2C5 JUMP JUMPDEST SWAP1 POP SWAP2 SWAP1 POP JUMP JUMPDEST PUSH2 0x2F1 DUP2 PUSH2 0x2D7 JUMP JUMPDEST DUP3 MSTORE POP POP JUMP JUMPDEST PUSH0 PUSH1 0x20 DUP3 ADD SWAP1 POP PUSH2 0x30A PUSH0 DUP4 ADD DUP5 PUSH2 0x2E8 JUMP JUMPDEST SWAP3 SWAP2 POP POP JUMP INVALID LOG2 PUSH5 0x6970667358 0x22 SLT KECCAK256 SWAP1 EXP 0xF7 DUP8 CALLDATASIZE PUSH20 0xC7BA9F8014EE11025708074F75B9EEED8C7F61F6 0xE9 SWAP14 0xD0 ORIGIN 0xFC 0xED PUSH5 0x736F6C6343 STOP ADDMOD BYTE STOP CALLER "
				},
				"gasEstimates": {
					"creation": {
						"codeDepositCost": "167600",
						"executionCost": "24509",
						"totalCost": "192109"
					},
					"external": {
						"Activate()": "24474",
						"Ready()": "24429",
						"Waiting()": "24451",
						"isActive()": "2529",
						"isReady()": "2572",
						"isWaiting()": "2550",
						"state()": "2617"
					}
				},
				"methodIdentifiers": {
					"Activate()": "59d3ce47",
					"Ready()": "6e12fa0f",
					"Waiting()": "4f80b579",
					"isActive()": "22f3e2d4",
					"isReady()": "a094a031",
					"isWaiting()": "7fecd538",
					"state()": "c19d93fb"
				}
			},
			"storageLayout": {
				"storage": [
					{
						"astId": 8,
						"contract": "contracts/Enum.sol:EnumUsage",
						"label": "state",
						"offset": 0,
						"slot": "0",
						"type": "t_enum(State)5"
					}
				],
				"types": {
					"t_enum(State)5": {
						"encoding": "inplace",
						"label": "enum EnumUsage.State",
						"numberOfBytes": "1"
					}
				}
			},
			"userdoc": {
				"kind": "user",
				"methods": {},
				"version": 1
			}
		}
	}
}