{
	"contracts/modifier.sol": {
		"ModifierImpl": {
			"abi": [
				{
					"inputs": [],
					"stateMutability": "nonpayable",
					"type": "constructor"
				},
				{
					"inputs": [
						{
							"internalType": "string",
							"name": "_fname",
							"type": "string"
						},
						{
							"internalType": "string",
							"name": "_lname",
							"type": "string"
						}
					],
					"name": "addPerson",
					"outputs": [],
					"stateMutability": "nonpayable",
					"type": "function"
				},
				{
					"inputs": [
						{
							"internalType": "uint256",
							"name": "",
							"type": "uint256"
						}
					],
					"name": "people",
					"outputs": [
						{
							"internalType": "uint256",
							"name": "_id",
							"type": "uint256"
						},
						{
							"internalType": "string",
							"name": "_fname",
							"type": "string"
						},
						{
							"internalType": "string",
							"name": "_lname",
							"type": "string"
						}
					],
					"stateMutability": "view",
					"type": "function"
				},
				{
					"inputs": [],
					"name": "peopleCount",
					"outputs": [
						{
							"internalType": "uint256",
							"name": "",
							"type": "uint256"
						}
					],
					"stateMutability": "view",
					"type": "function"
				}
			],
			"devdoc": {
				"kind": "dev",
				"methods": {},
				"version": 1
			},
			"evm": {
				"assembly": "    /* \"contracts/modifier.sol\":60:715  contract ModifierImpl{... */\n  mstore(0x40, 0x80)\n    /* \"contracts/modifier.sol\":117:118  0 */\n  0x00\n    /* \"contracts/modifier.sol\":88:118  uint256 public peopleCount = 0 */\n  dup1\n  sstore\n    /* \"contracts/modifier.sol\":276:327  constructor() {... */\n  callvalue\n  dup1\n  iszero\n  tag_1\n  jumpi\n  0x00\n  dup1\n  revert\ntag_1:\n  pop\n    /* \"contracts/modifier.sol\":309:319  msg.sender */\n  caller\n    /* \"contracts/modifier.sol\":301:306  owner */\n  0x02\n  0x00\n    /* \"contracts/modifier.sol\":301:319  owner = msg.sender */\n  0x0100\n  exp\n  dup2\n  sload\n  dup2\n  0xffffffffffffffffffffffffffffffffffffffff\n  mul\n  not\n  and\n  swap1\n  dup4\n  0xffffffffffffffffffffffffffffffffffffffff\n  and\n  mul\n  or\n  swap1\n  sstore\n  pop\n    /* \"contracts/modifier.sol\":60:715  contract ModifierImpl{... */\n  dataSize(sub_0)\n  dup1\n  dataOffset(sub_0)\n  0x00\n  codecopy\n  0x00\n  return\nstop\n\nsub_0: assembly {\n        /* \"contracts/modifier.sol\":60:715  contract ModifierImpl{... */\n      mstore(0x40, 0x80)\n      callvalue\n      dup1\n      iszero\n      tag_1\n      jumpi\n      0x00\n      dup1\n      revert\n    tag_1:\n      pop\n      jumpi(tag_2, lt(calldatasize, 0x04))\n      shr(0xe0, calldataload(0x00))\n      dup1\n      0x22f5b58d\n      eq\n      tag_3\n      jumpi\n      dup1\n      0x267c68e0\n      eq\n      tag_4\n      jumpi\n      dup1\n      0x9e7a13ad\n      eq\n      tag_5\n      jumpi\n    tag_2:\n      0x00\n      dup1\n      revert\n        /* \"contracts/modifier.sol\":429:626  function addPerson(string memory _fname, string memory _lname)... */\n    tag_3:\n      tag_6\n      0x04\n      dup1\n      calldatasize\n      sub\n      dup2\n      add\n      swap1\n      tag_7\n      swap2\n      swap1\n      tag_8\n      jump\t// in\n    tag_7:\n      tag_9\n      jump\t// in\n    tag_6:\n      stop\n        /* \"contracts/modifier.sol\":88:118  uint256 public peopleCount = 0 */\n    tag_4:\n      tag_10\n      tag_11\n      jump\t// in\n    tag_10:\n      mload(0x40)\n      tag_12\n      swap2\n      swap1\n      tag_13\n      jump\t// in\n    tag_12:\n      mload(0x40)\n      dup1\n      swap2\n      sub\n      swap1\n      return\n        /* \"contracts/modifier.sol\":125:162  mapping(uint => person) public people */\n    tag_5:\n      tag_14\n      0x04\n      dup1\n      calldatasize\n      sub\n      dup2\n      add\n      swap1\n      tag_15\n      swap2\n      swap1\n      tag_16\n      jump\t// in\n    tag_15:\n      tag_17\n      jump\t// in\n    tag_14:\n      mload(0x40)\n      tag_18\n      swap4\n      swap3\n      swap2\n      swap1\n      tag_19\n      jump\t// in\n    tag_18:\n      mload(0x40)\n      dup1\n      swap2\n      sub\n      swap1\n      return\n        /* \"contracts/modifier.sol\":429:626  function addPerson(string memory _fname, string memory _lname)... */\n    tag_9:\n        /* \"contracts/modifier.sol\":242:247  owner */\n      0x02\n      0x00\n      swap1\n      sload\n      swap1\n      0x0100\n      exp\n      swap1\n      div\n      0xffffffffffffffffffffffffffffffffffffffff\n      and\n        /* \"contracts/modifier.sol\":228:247  msg.sender == owner */\n      0xffffffffffffffffffffffffffffffffffffffff\n      and\n        /* \"contracts/modifier.sol\":228:238  msg.sender */\n      caller\n        /* \"contracts/modifier.sol\":228:247  msg.sender == owner */\n      0xffffffffffffffffffffffffffffffffffffffff\n      and\n      eq\n        /* \"contracts/modifier.sol\":220:248  require(msg.sender == owner) */\n      tag_21\n      jumpi\n      0x00\n      dup1\n      revert\n    tag_21:\n        /* \"contracts/modifier.sol\":532:543  increment() */\n      tag_23\n        /* \"contracts/modifier.sol\":532:541  increment */\n      tag_24\n        /* \"contracts/modifier.sol\":532:543  increment() */\n      jump\t// in\n    tag_23:\n        /* \"contracts/modifier.sol\":579:614  person(peopleCount, _fname, _lname) */\n      mload(0x40)\n      dup1\n      0x60\n      add\n      0x40\n      mstore\n      dup1\n        /* \"contracts/modifier.sol\":586:597  peopleCount */\n      sload(0x00)\n        /* \"contracts/modifier.sol\":579:614  person(peopleCount, _fname, _lname) */\n      dup2\n      mstore\n      0x20\n      add\n        /* \"contracts/modifier.sol\":599:605  _fname */\n      dup4\n        /* \"contracts/modifier.sol\":579:614  person(peopleCount, _fname, _lname) */\n      dup2\n      mstore\n      0x20\n      add\n        /* \"contracts/modifier.sol\":607:613  _lname */\n      dup3\n        /* \"contracts/modifier.sol\":579:614  person(peopleCount, _fname, _lname) */\n      dup2\n      mstore\n      pop\n        /* \"contracts/modifier.sol\":558:564  people */\n      0x01\n        /* \"contracts/modifier.sol\":558:577  people[peopleCount] */\n      0x00\n        /* \"contracts/modifier.sol\":565:576  peopleCount */\n      dup1\n      sload\n        /* \"contracts/modifier.sol\":558:577  people[peopleCount] */\n      dup2\n      mstore\n      0x20\n      add\n      swap1\n      dup2\n      mstore\n      0x20\n      add\n      0x00\n      keccak256\n        /* \"contracts/modifier.sol\":558:614  people[peopleCount] =person(peopleCount, _fname, _lname) */\n      0x00\n      dup3\n      add\n      mload\n      dup2\n      0x00\n      add\n      sstore\n      0x20\n      dup3\n      add\n      mload\n      dup2\n      0x01\n      add\n      swap1\n      dup2\n      tag_25\n      swap2\n      swap1\n      tag_26\n      jump\t// in\n    tag_25:\n      pop\n      0x40\n      dup3\n      add\n      mload\n      dup2\n      0x02\n      add\n      swap1\n      dup2\n      tag_27\n      swap2\n      swap1\n      tag_26\n      jump\t// in\n    tag_27:\n      pop\n      swap1\n      pop\n      pop\n        /* \"contracts/modifier.sol\":429:626  function addPerson(string memory _fname, string memory _lname)... */\n      pop\n      pop\n      jump\t// out\n        /* \"contracts/modifier.sol\":88:118  uint256 public peopleCount = 0 */\n    tag_11:\n      sload(0x00)\n      dup2\n      jump\t// out\n        /* \"contracts/modifier.sol\":125:162  mapping(uint => person) public people */\n    tag_17:\n      mstore(0x20, 0x01)\n      dup1\n      0x00\n      mstore\n      keccak256(0x00, 0x40)\n      0x00\n      swap2\n      pop\n      swap1\n      pop\n      dup1\n      0x00\n      add\n      sload\n      swap1\n      dup1\n      0x01\n      add\n      dup1\n      sload\n      tag_28\n      swap1\n      tag_29\n      jump\t// in\n    tag_28:\n      dup1\n      0x1f\n      add\n      0x20\n      dup1\n      swap2\n      div\n      mul\n      0x20\n      add\n      mload(0x40)\n      swap1\n      dup2\n      add\n      0x40\n      mstore\n      dup1\n      swap3\n      swap2\n      swap1\n      dup2\n      dup2\n      mstore\n      0x20\n      add\n      dup3\n      dup1\n      sload\n      tag_30\n      swap1\n      tag_29\n      jump\t// in\n    tag_30:\n      dup1\n      iszero\n      tag_31\n      jumpi\n      dup1\n      0x1f\n      lt\n      tag_32\n      jumpi\n      0x0100\n      dup1\n      dup4\n      sload\n      div\n      mul\n      dup4\n      mstore\n      swap2\n      0x20\n      add\n      swap2\n      jump(tag_31)\n    tag_32:\n      dup3\n      add\n      swap2\n      swap1\n      0x00\n      mstore\n      keccak256(0x00, 0x20)\n      swap1\n    tag_33:\n      dup2\n      sload\n      dup2\n      mstore\n      swap1\n      0x01\n      add\n      swap1\n      0x20\n      add\n      dup1\n      dup4\n      gt\n      tag_33\n      jumpi\n      dup3\n      swap1\n      sub\n      0x1f\n      and\n      dup3\n      add\n      swap2\n    tag_31:\n      pop\n      pop\n      pop\n      pop\n      pop\n      swap1\n      dup1\n      0x02\n      add\n      dup1\n      sload\n      tag_34\n      swap1\n      tag_29\n      jump\t// in\n    tag_34:\n      dup1\n      0x1f\n      add\n      0x20\n      dup1\n      swap2\n      div\n      mul\n      0x20\n      add\n      mload(0x40)\n      swap1\n      dup2\n      add\n      0x40\n      mstore\n      dup1\n      swap3\n      swap2\n      swap1\n      dup2\n      dup2\n      mstore\n      0x20\n      add\n      dup3\n      dup1\n      sload\n      tag_35\n      swap1\n      tag_29\n      jump\t// in\n    tag_35:\n      dup1\n      iszero\n      tag_36\n      jumpi\n      dup1\n      0x1f\n      lt\n      tag_37\n      jumpi\n      0x0100\n      dup1\n      dup4\n      sload\n      div\n      mul\n      dup4\n      mstore\n      swap2\n      0x20\n      add\n      swap2\n      jump(tag_36)\n    tag_37:\n      dup3\n      add\n      swap2\n      swap1\n      0x00\n      mstore\n      keccak256(0x00, 0x20)\n      swap1\n    tag_38:\n      dup2\n      sload\n      dup2\n      mstore\n      swap1\n      0x01\n      add\n      swap1\n      0x20\n      add\n      dup1\n      dup4\n      gt\n      tag_38\n      jumpi\n      dup3\n      swap1\n      sub\n      0x1f\n      and\n      dup3\n      add\n      swap2\n    tag_36:\n      pop\n      pop\n      pop\n      pop\n      pop\n      swap1\n      pop\n      dup4\n      jump\t// out\n        /* \"contracts/modifier.sol\":638:708  function increment() internal{... */\n    tag_24:\n        /* \"contracts/modifier.sol\":695:696  1 */\n      0x01\n        /* \"contracts/modifier.sol\":682:693  peopleCount */\n      0x00\n      dup1\n        /* \"contracts/modifier.sol\":682:696  peopleCount+=1 */\n      dup3\n      dup3\n      sload\n      tag_40\n      swap2\n      swap1\n      tag_41\n      jump\t// in\n    tag_40:\n      swap3\n      pop\n      pop\n      dup2\n      swap1\n      sstore\n      pop\n        /* \"contracts/modifier.sol\":638:708  function increment() internal{... */\n      jump\t// out\n        /* \"#utility.yul\":7:82   */\n    tag_42:\n        /* \"#utility.yul\":40:46   */\n      0x00\n        /* \"#utility.yul\":73:75   */\n      0x40\n        /* \"#utility.yul\":67:76   */\n      mload\n        /* \"#utility.yul\":57:76   */\n      swap1\n      pop\n        /* \"#utility.yul\":7:82   */\n      swap1\n      jump\t// out\n        /* \"#utility.yul\":88:205   */\n    tag_43:\n        /* \"#utility.yul\":197:198   */\n      0x00\n        /* \"#utility.yul\":194:195   */\n      dup1\n        /* \"#utility.yul\":187:199   */\n      revert\n        /* \"#utility.yul\":211:328   */\n    tag_44:\n        /* \"#utility.yul\":320:321   */\n      0x00\n        /* \"#utility.yul\":317:318   */\n      dup1\n        /* \"#utility.yul\":310:322   */\n      revert\n        /* \"#utility.yul\":334:451   */\n    tag_45:\n        /* \"#utility.yul\":443:444   */\n      0x00\n        /* \"#utility.yul\":440:441   */\n      dup1\n        /* \"#utility.yul\":433:445   */\n      revert\n        /* \"#utility.yul\":457:574   */\n    tag_46:\n        /* \"#utility.yul\":566:567   */\n      0x00\n        /* \"#utility.yul\":563:564   */\n      dup1\n        /* \"#utility.yul\":556:568   */\n      revert\n        /* \"#utility.yul\":580:682   */\n    tag_47:\n        /* \"#utility.yul\":621:627   */\n      0x00\n        /* \"#utility.yul\":672:674   */\n      0x1f\n        /* \"#utility.yul\":668:675   */\n      not\n        /* \"#utility.yul\":663:665   */\n      0x1f\n        /* \"#utility.yul\":656:661   */\n      dup4\n        /* \"#utility.yul\":652:666   */\n      add\n        /* \"#utility.yul\":648:676   */\n      and\n        /* \"#utility.yul\":638:676   */\n      swap1\n      pop\n        /* \"#utility.yul\":580:682   */\n      swap2\n      swap1\n      pop\n      jump\t// out\n        /* \"#utility.yul\":688:868   */\n    tag_48:\n        /* \"#utility.yul\":736:813   */\n      0x4e487b7100000000000000000000000000000000000000000000000000000000\n        /* \"#utility.yul\":733:734   */\n      0x00\n        /* \"#utility.yul\":726:814   */\n      mstore\n        /* \"#utility.yul\":833:837   */\n      0x41\n        /* \"#utility.yul\":830:831   */\n      0x04\n        /* \"#utility.yul\":823:838   */\n      mstore\n        /* \"#utility.yul\":857:861   */\n      0x24\n        /* \"#utility.yul\":854:855   */\n      0x00\n        /* \"#utility.yul\":847:862   */\n      revert\n        /* \"#utility.yul\":874:1155   */\n    tag_49:\n        /* \"#utility.yul\":957:984   */\n      tag_89\n        /* \"#utility.yul\":979:983   */\n      dup3\n        /* \"#utility.yul\":957:984   */\n      tag_47\n      jump\t// in\n    tag_89:\n        /* \"#utility.yul\":949:955   */\n      dup2\n        /* \"#utility.yul\":945:985   */\n      add\n        /* \"#utility.yul\":1087:1093   */\n      dup2\n        /* \"#utility.yul\":1075:1085   */\n      dup2\n        /* \"#utility.yul\":1072:1094   */\n      lt\n        /* \"#utility.yul\":1051:1069   */\n      0xffffffffffffffff\n        /* \"#utility.yul\":1039:1049   */\n      dup3\n        /* \"#utility.yul\":1036:1070   */\n      gt\n        /* \"#utility.yul\":1033:1095   */\n      or\n        /* \"#utility.yul\":1030:1118   */\n      iszero\n      tag_90\n      jumpi\n        /* \"#utility.yul\":1098:1116   */\n      tag_91\n      tag_48\n      jump\t// in\n    tag_91:\n        /* \"#utility.yul\":1030:1118   */\n    tag_90:\n        /* \"#utility.yul\":1138:1148   */\n      dup1\n        /* \"#utility.yul\":1134:1136   */\n      0x40\n        /* \"#utility.yul\":1127:1149   */\n      mstore\n        /* \"#utility.yul\":917:1155   */\n      pop\n        /* \"#utility.yul\":874:1155   */\n      pop\n      pop\n      jump\t// out\n        /* \"#utility.yul\":1161:1290   */\n    tag_50:\n        /* \"#utility.yul\":1195:1201   */\n      0x00\n        /* \"#utility.yul\":1222:1242   */\n      tag_93\n      tag_42\n      jump\t// in\n    tag_93:\n        /* \"#utility.yul\":1212:1242   */\n      swap1\n      pop\n        /* \"#utility.yul\":1251:1284   */\n      tag_94\n        /* \"#utility.yul\":1279:1283   */\n      dup3\n        /* \"#utility.yul\":1271:1277   */\n      dup3\n        /* \"#utility.yul\":1251:1284   */\n      tag_49\n      jump\t// in\n    tag_94:\n        /* \"#utility.yul\":1161:1290   */\n      swap2\n      swap1\n      pop\n      jump\t// out\n        /* \"#utility.yul\":1296:1604   */\n    tag_51:\n        /* \"#utility.yul\":1358:1362   */\n      0x00\n        /* \"#utility.yul\":1448:1466   */\n      0xffffffffffffffff\n        /* \"#utility.yul\":1440:1446   */\n      dup3\n        /* \"#utility.yul\":1437:1467   */\n      gt\n        /* \"#utility.yul\":1434:1490   */\n      iszero\n      tag_96\n      jumpi\n        /* \"#utility.yul\":1470:1488   */\n      tag_97\n      tag_48\n      jump\t// in\n    tag_97:\n        /* \"#utility.yul\":1434:1490   */\n    tag_96:\n        /* \"#utility.yul\":1508:1537   */\n      tag_98\n        /* \"#utility.yul\":1530:1536   */\n      dup3\n        /* \"#utility.yul\":1508:1537   */\n      tag_47\n      jump\t// in\n    tag_98:\n        /* \"#utility.yul\":1500:1537   */\n      swap1\n      pop\n        /* \"#utility.yul\":1592:1596   */\n      0x20\n        /* \"#utility.yul\":1586:1590   */\n      dup2\n        /* \"#utility.yul\":1582:1597   */\n      add\n        /* \"#utility.yul\":1574:1597   */\n      swap1\n      pop\n        /* \"#utility.yul\":1296:1604   */\n      swap2\n      swap1\n      pop\n      jump\t// out\n        /* \"#utility.yul\":1610:1758   */\n    tag_52:\n        /* \"#utility.yul\":1708:1714   */\n      dup3\n        /* \"#utility.yul\":1703:1706   */\n      dup2\n        /* \"#utility.yul\":1698:1701   */\n      dup4\n        /* \"#utility.yul\":1685:1715   */\n      calldatacopy\n        /* \"#utility.yul\":1749:1750   */\n      0x00\n        /* \"#utility.yul\":1740:1746   */\n      dup4\n        /* \"#utility.yul\":1735:1738   */\n      dup4\n        /* \"#utility.yul\":1731:1747   */\n      add\n        /* \"#utility.yul\":1724:1751   */\n      mstore\n        /* \"#utility.yul\":1610:1758   */\n      pop\n      pop\n      pop\n      jump\t// out\n        /* \"#utility.yul\":1764:2189   */\n    tag_53:\n        /* \"#utility.yul\":1842:1847   */\n      0x00\n        /* \"#utility.yul\":1867:1933   */\n      tag_101\n        /* \"#utility.yul\":1883:1932   */\n      tag_102\n        /* \"#utility.yul\":1925:1931   */\n      dup5\n        /* \"#utility.yul\":1883:1932   */\n      tag_51\n      jump\t// in\n    tag_102:\n        /* \"#utility.yul\":1867:1933   */\n      tag_50\n      jump\t// in\n    tag_101:\n        /* \"#utility.yul\":1858:1933   */\n      swap1\n      pop\n        /* \"#utility.yul\":1956:1962   */\n      dup3\n        /* \"#utility.yul\":1949:1954   */\n      dup2\n        /* \"#utility.yul\":1942:1963   */\n      mstore\n        /* \"#utility.yul\":1994:1998   */\n      0x20\n        /* \"#utility.yul\":1987:1992   */\n      dup2\n        /* \"#utility.yul\":1983:1999   */\n      add\n        /* \"#utility.yul\":2032:2035   */\n      dup5\n        /* \"#utility.yul\":2023:2029   */\n      dup5\n        /* \"#utility.yul\":2018:2021   */\n      dup5\n        /* \"#utility.yul\":2014:2030   */\n      add\n        /* \"#utility.yul\":2011:2036   */\n      gt\n        /* \"#utility.yul\":2008:2120   */\n      iszero\n      tag_103\n      jumpi\n        /* \"#utility.yul\":2039:2118   */\n      tag_104\n      tag_46\n      jump\t// in\n    tag_104:\n        /* \"#utility.yul\":2008:2120   */\n    tag_103:\n        /* \"#utility.yul\":2129:2183   */\n      tag_105\n        /* \"#utility.yul\":2176:2182   */\n      dup5\n        /* \"#utility.yul\":2171:2174   */\n      dup3\n        /* \"#utility.yul\":2166:2169   */\n      dup6\n        /* \"#utility.yul\":2129:2183   */\n      tag_52\n      jump\t// in\n    tag_105:\n        /* \"#utility.yul\":1848:2189   */\n      pop\n        /* \"#utility.yul\":1764:2189   */\n      swap4\n      swap3\n      pop\n      pop\n      pop\n      jump\t// out\n        /* \"#utility.yul\":2209:2549   */\n    tag_54:\n        /* \"#utility.yul\":2265:2270   */\n      0x00\n        /* \"#utility.yul\":2314:2317   */\n      dup3\n        /* \"#utility.yul\":2307:2311   */\n      0x1f\n        /* \"#utility.yul\":2299:2305   */\n      dup4\n        /* \"#utility.yul\":2295:2312   */\n      add\n        /* \"#utility.yul\":2291:2318   */\n      slt\n        /* \"#utility.yul\":2281:2403   */\n      tag_107\n      jumpi\n        /* \"#utility.yul\":2322:2401   */\n      tag_108\n      tag_45\n      jump\t// in\n    tag_108:\n        /* \"#utility.yul\":2281:2403   */\n    tag_107:\n        /* \"#utility.yul\":2439:2445   */\n      dup2\n        /* \"#utility.yul\":2426:2446   */\n      calldataload\n        /* \"#utility.yul\":2464:2543   */\n      tag_109\n        /* \"#utility.yul\":2539:2542   */\n      dup5\n        /* \"#utility.yul\":2531:2537   */\n      dup3\n        /* \"#utility.yul\":2524:2528   */\n      0x20\n        /* \"#utility.yul\":2516:2522   */\n      dup7\n        /* \"#utility.yul\":2512:2529   */\n      add\n        /* \"#utility.yul\":2464:2543   */\n      tag_53\n      jump\t// in\n    tag_109:\n        /* \"#utility.yul\":2455:2543   */\n      swap2\n      pop\n        /* \"#utility.yul\":2271:2549   */\n      pop\n        /* \"#utility.yul\":2209:2549   */\n      swap3\n      swap2\n      pop\n      pop\n      jump\t// out\n        /* \"#utility.yul\":2555:3389   */\n    tag_8:\n        /* \"#utility.yul\":2643:2649   */\n      0x00\n        /* \"#utility.yul\":2651:2657   */\n      dup1\n        /* \"#utility.yul\":2700:2702   */\n      0x40\n        /* \"#utility.yul\":2688:2697   */\n      dup4\n        /* \"#utility.yul\":2679:2686   */\n      dup6\n        /* \"#utility.yul\":2675:2698   */\n      sub\n        /* \"#utility.yul\":2671:2703   */\n      slt\n        /* \"#utility.yul\":2668:2787   */\n      iszero\n      tag_111\n      jumpi\n        /* \"#utility.yul\":2706:2785   */\n      tag_112\n      tag_43\n      jump\t// in\n    tag_112:\n        /* \"#utility.yul\":2668:2787   */\n    tag_111:\n        /* \"#utility.yul\":2854:2855   */\n      0x00\n        /* \"#utility.yul\":2843:2852   */\n      dup4\n        /* \"#utility.yul\":2839:2856   */\n      add\n        /* \"#utility.yul\":2826:2857   */\n      calldataload\n        /* \"#utility.yul\":2884:2902   */\n      0xffffffffffffffff\n        /* \"#utility.yul\":2876:2882   */\n      dup2\n        /* \"#utility.yul\":2873:2903   */\n      gt\n        /* \"#utility.yul\":2870:2987   */\n      iszero\n      tag_113\n      jumpi\n        /* \"#utility.yul\":2906:2985   */\n      tag_114\n      tag_44\n      jump\t// in\n    tag_114:\n        /* \"#utility.yul\":2870:2987   */\n    tag_113:\n        /* \"#utility.yul\":3011:3074   */\n      tag_115\n        /* \"#utility.yul\":3066:3073   */\n      dup6\n        /* \"#utility.yul\":3057:3063   */\n      dup3\n        /* \"#utility.yul\":3046:3055   */\n      dup7\n        /* \"#utility.yul\":3042:3064   */\n      add\n        /* \"#utility.yul\":3011:3074   */\n      tag_54\n      jump\t// in\n    tag_115:\n        /* \"#utility.yul\":3001:3074   */\n      swap3\n      pop\n        /* \"#utility.yul\":2797:3084   */\n      pop\n        /* \"#utility.yul\":3151:3153   */\n      0x20\n        /* \"#utility.yul\":3140:3149   */\n      dup4\n        /* \"#utility.yul\":3136:3154   */\n      add\n        /* \"#utility.yul\":3123:3155   */\n      calldataload\n        /* \"#utility.yul\":3182:3200   */\n      0xffffffffffffffff\n        /* \"#utility.yul\":3174:3180   */\n      dup2\n        /* \"#utility.yul\":3171:3201   */\n      gt\n        /* \"#utility.yul\":3168:3285   */\n      iszero\n      tag_116\n      jumpi\n        /* \"#utility.yul\":3204:3283   */\n      tag_117\n      tag_44\n      jump\t// in\n    tag_117:\n        /* \"#utility.yul\":3168:3285   */\n    tag_116:\n        /* \"#utility.yul\":3309:3372   */\n      tag_118\n        /* \"#utility.yul\":3364:3371   */\n      dup6\n        /* \"#utility.yul\":3355:3361   */\n      dup3\n        /* \"#utility.yul\":3344:3353   */\n      dup7\n        /* \"#utility.yul\":3340:3362   */\n      add\n        /* \"#utility.yul\":3309:3372   */\n      tag_54\n      jump\t// in\n    tag_118:\n        /* \"#utility.yul\":3299:3372   */\n      swap2\n      pop\n        /* \"#utility.yul\":3094:3382   */\n      pop\n        /* \"#utility.yul\":2555:3389   */\n      swap3\n      pop\n      swap3\n      swap1\n      pop\n      jump\t// out\n        /* \"#utility.yul\":3395:3472   */\n    tag_55:\n        /* \"#utility.yul\":3432:3439   */\n      0x00\n        /* \"#utility.yul\":3461:3466   */\n      dup2\n        /* \"#utility.yul\":3450:3466   */\n      swap1\n      pop\n        /* \"#utility.yul\":3395:3472   */\n      swap2\n      swap1\n      pop\n      jump\t// out\n        /* \"#utility.yul\":3478:3596   */\n    tag_56:\n        /* \"#utility.yul\":3565:3589   */\n      tag_121\n        /* \"#utility.yul\":3583:3588   */\n      dup2\n        /* \"#utility.yul\":3565:3589   */\n      tag_55\n      jump\t// in\n    tag_121:\n        /* \"#utility.yul\":3560:3563   */\n      dup3\n        /* \"#utility.yul\":3553:3590   */\n      mstore\n        /* \"#utility.yul\":3478:3596   */\n      pop\n      pop\n      jump\t// out\n        /* \"#utility.yul\":3602:3824   */\n    tag_13:\n        /* \"#utility.yul\":3695:3699   */\n      0x00\n        /* \"#utility.yul\":3733:3735   */\n      0x20\n        /* \"#utility.yul\":3722:3731   */\n      dup3\n        /* \"#utility.yul\":3718:3736   */\n      add\n        /* \"#utility.yul\":3710:3736   */\n      swap1\n      pop\n        /* \"#utility.yul\":3746:3817   */\n      tag_123\n        /* \"#utility.yul\":3814:3815   */\n      0x00\n        /* \"#utility.yul\":3803:3812   */\n      dup4\n        /* \"#utility.yul\":3799:3816   */\n      add\n        /* \"#utility.yul\":3790:3796   */\n      dup5\n        /* \"#utility.yul\":3746:3817   */\n      tag_56\n      jump\t// in\n    tag_123:\n        /* \"#utility.yul\":3602:3824   */\n      swap3\n      swap2\n      pop\n      pop\n      jump\t// out\n        /* \"#utility.yul\":3830:3952   */\n    tag_57:\n        /* \"#utility.yul\":3903:3927   */\n      tag_125\n        /* \"#utility.yul\":3921:3926   */\n      dup2\n        /* \"#utility.yul\":3903:3927   */\n      tag_55\n      jump\t// in\n    tag_125:\n        /* \"#utility.yul\":3896:3901   */\n      dup2\n        /* \"#utility.yul\":3893:3928   */\n      eq\n        /* \"#utility.yul\":3883:3946   */\n      tag_126\n      jumpi\n        /* \"#utility.yul\":3942:3943   */\n      0x00\n        /* \"#utility.yul\":3939:3940   */\n      dup1\n        /* \"#utility.yul\":3932:3944   */\n      revert\n        /* \"#utility.yul\":3883:3946   */\n    tag_126:\n        /* \"#utility.yul\":3830:3952   */\n      pop\n      jump\t// out\n        /* \"#utility.yul\":3958:4097   */\n    tag_58:\n        /* \"#utility.yul\":4004:4009   */\n      0x00\n        /* \"#utility.yul\":4042:4048   */\n      dup2\n        /* \"#utility.yul\":4029:4049   */\n      calldataload\n        /* \"#utility.yul\":4020:4049   */\n      swap1\n      pop\n        /* \"#utility.yul\":4058:4091   */\n      tag_128\n        /* \"#utility.yul\":4085:4090   */\n      dup2\n        /* \"#utility.yul\":4058:4091   */\n      tag_57\n      jump\t// in\n    tag_128:\n        /* \"#utility.yul\":3958:4097   */\n      swap3\n      swap2\n      pop\n      pop\n      jump\t// out\n        /* \"#utility.yul\":4103:4432   */\n    tag_16:\n        /* \"#utility.yul\":4162:4168   */\n      0x00\n        /* \"#utility.yul\":4211:4213   */\n      0x20\n        /* \"#utility.yul\":4199:4208   */\n      dup3\n        /* \"#utility.yul\":4190:4197   */\n      dup5\n        /* \"#utility.yul\":4186:4209   */\n      sub\n        /* \"#utility.yul\":4182:4214   */\n      slt\n        /* \"#utility.yul\":4179:4298   */\n      iszero\n      tag_130\n      jumpi\n        /* \"#utility.yul\":4217:4296   */\n      tag_131\n      tag_43\n      jump\t// in\n    tag_131:\n        /* \"#utility.yul\":4179:4298   */\n    tag_130:\n        /* \"#utility.yul\":4337:4338   */\n      0x00\n        /* \"#utility.yul\":4362:4415   */\n      tag_132\n        /* \"#utility.yul\":4407:4414   */\n      dup5\n        /* \"#utility.yul\":4398:4404   */\n      dup3\n        /* \"#utility.yul\":4387:4396   */\n      dup6\n        /* \"#utility.yul\":4383:4405   */\n      add\n        /* \"#utility.yul\":4362:4415   */\n      tag_58\n      jump\t// in\n    tag_132:\n        /* \"#utility.yul\":4352:4415   */\n      swap2\n      pop\n        /* \"#utility.yul\":4308:4425   */\n      pop\n        /* \"#utility.yul\":4103:4432   */\n      swap3\n      swap2\n      pop\n      pop\n      jump\t// out\n        /* \"#utility.yul\":4438:4537   */\n    tag_59:\n        /* \"#utility.yul\":4490:4496   */\n      0x00\n        /* \"#utility.yul\":4524:4529   */\n      dup2\n        /* \"#utility.yul\":4518:4530   */\n      mload\n        /* \"#utility.yul\":4508:4530   */\n      swap1\n      pop\n        /* \"#utility.yul\":4438:4537   */\n      swap2\n      swap1\n      pop\n      jump\t// out\n        /* \"#utility.yul\":4543:4712   */\n    tag_60:\n        /* \"#utility.yul\":4627:4638   */\n      0x00\n        /* \"#utility.yul\":4661:4667   */\n      dup3\n        /* \"#utility.yul\":4656:4659   */\n      dup3\n        /* \"#utility.yul\":4649:4668   */\n      mstore\n        /* \"#utility.yul\":4701:4705   */\n      0x20\n        /* \"#utility.yul\":4696:4699   */\n      dup3\n        /* \"#utility.yul\":4692:4706   */\n      add\n        /* \"#utility.yul\":4677:4706   */\n      swap1\n      pop\n        /* \"#utility.yul\":4543:4712   */\n      swap3\n      swap2\n      pop\n      pop\n      jump\t// out\n        /* \"#utility.yul\":4718:4857   */\n    tag_61:\n        /* \"#utility.yul\":4807:4813   */\n      dup3\n        /* \"#utility.yul\":4802:4805   */\n      dup2\n        /* \"#utility.yul\":4797:4800   */\n      dup4\n        /* \"#utility.yul\":4791:4814   */\n      mcopy\n        /* \"#utility.yul\":4848:4849   */\n      0x00\n        /* \"#utility.yul\":4839:4845   */\n      dup4\n        /* \"#utility.yul\":4834:4837   */\n      dup4\n        /* \"#utility.yul\":4830:4846   */\n      add\n        /* \"#utility.yul\":4823:4850   */\n      mstore\n        /* \"#utility.yul\":4718:4857   */\n      pop\n      pop\n      pop\n      jump\t// out\n        /* \"#utility.yul\":4863:5240   */\n    tag_62:\n        /* \"#utility.yul\":4951:4954   */\n      0x00\n        /* \"#utility.yul\":4979:5018   */\n      tag_137\n        /* \"#utility.yul\":5012:5017   */\n      dup3\n        /* \"#utility.yul\":4979:5018   */\n      tag_59\n      jump\t// in\n    tag_137:\n        /* \"#utility.yul\":5034:5105   */\n      tag_138\n        /* \"#utility.yul\":5098:5104   */\n      dup2\n        /* \"#utility.yul\":5093:5096   */\n      dup6\n        /* \"#utility.yul\":5034:5105   */\n      tag_60\n      jump\t// in\n    tag_138:\n        /* \"#utility.yul\":5027:5105   */\n      swap4\n      pop\n        /* \"#utility.yul\":5114:5179   */\n      tag_139\n        /* \"#utility.yul\":5172:5178   */\n      dup2\n        /* \"#utility.yul\":5167:5170   */\n      dup6\n        /* \"#utility.yul\":5160:5164   */\n      0x20\n        /* \"#utility.yul\":5153:5158   */\n      dup7\n        /* \"#utility.yul\":5149:5165   */\n      add\n        /* \"#utility.yul\":5114:5179   */\n      tag_61\n      jump\t// in\n    tag_139:\n        /* \"#utility.yul\":5204:5233   */\n      tag_140\n        /* \"#utility.yul\":5226:5232   */\n      dup2\n        /* \"#utility.yul\":5204:5233   */\n      tag_47\n      jump\t// in\n    tag_140:\n        /* \"#utility.yul\":5199:5202   */\n      dup5\n        /* \"#utility.yul\":5195:5234   */\n      add\n        /* \"#utility.yul\":5188:5234   */\n      swap2\n      pop\n        /* \"#utility.yul\":4955:5240   */\n      pop\n        /* \"#utility.yul\":4863:5240   */\n      swap3\n      swap2\n      pop\n      pop\n      jump\t// out\n        /* \"#utility.yul\":5246:5870   */\n    tag_19:\n        /* \"#utility.yul\":5435:5439   */\n      0x00\n        /* \"#utility.yul\":5473:5475   */\n      0x60\n        /* \"#utility.yul\":5462:5471   */\n      dup3\n        /* \"#utility.yul\":5458:5476   */\n      add\n        /* \"#utility.yul\":5450:5476   */\n      swap1\n      pop\n        /* \"#utility.yul\":5486:5557   */\n      tag_142\n        /* \"#utility.yul\":5554:5555   */\n      0x00\n        /* \"#utility.yul\":5543:5552   */\n      dup4\n        /* \"#utility.yul\":5539:5556   */\n      add\n        /* \"#utility.yul\":5530:5536   */\n      dup7\n        /* \"#utility.yul\":5486:5557   */\n      tag_56\n      jump\t// in\n    tag_142:\n        /* \"#utility.yul\":5604:5613   */\n      dup2\n        /* \"#utility.yul\":5598:5602   */\n      dup2\n        /* \"#utility.yul\":5594:5614   */\n      sub\n        /* \"#utility.yul\":5589:5591   */\n      0x20\n        /* \"#utility.yul\":5578:5587   */\n      dup4\n        /* \"#utility.yul\":5574:5592   */\n      add\n        /* \"#utility.yul\":5567:5615   */\n      mstore\n        /* \"#utility.yul\":5632:5710   */\n      tag_143\n        /* \"#utility.yul\":5705:5709   */\n      dup2\n        /* \"#utility.yul\":5696:5702   */\n      dup6\n        /* \"#utility.yul\":5632:5710   */\n      tag_62\n      jump\t// in\n    tag_143:\n        /* \"#utility.yul\":5624:5710   */\n      swap1\n      pop\n        /* \"#utility.yul\":5757:5766   */\n      dup2\n        /* \"#utility.yul\":5751:5755   */\n      dup2\n        /* \"#utility.yul\":5747:5767   */\n      sub\n        /* \"#utility.yul\":5742:5744   */\n      0x40\n        /* \"#utility.yul\":5731:5740   */\n      dup4\n        /* \"#utility.yul\":5727:5745   */\n      add\n        /* \"#utility.yul\":5720:5768   */\n      mstore\n        /* \"#utility.yul\":5785:5863   */\n      tag_144\n        /* \"#utility.yul\":5858:5862   */\n      dup2\n        /* \"#utility.yul\":5849:5855   */\n      dup5\n        /* \"#utility.yul\":5785:5863   */\n      tag_62\n      jump\t// in\n    tag_144:\n        /* \"#utility.yul\":5777:5863   */\n      swap1\n      pop\n        /* \"#utility.yul\":5246:5870   */\n      swap5\n      swap4\n      pop\n      pop\n      pop\n      pop\n      jump\t// out\n        /* \"#utility.yul\":5876:6056   */\n    tag_63:\n        /* \"#utility.yul\":5924:6001   */\n      0x4e487b7100000000000000000000000000000000000000000000000000000000\n        /* \"#utility.yul\":5921:5922   */\n      0x00\n        /* \"#utility.yul\":5914:6002   */\n      mstore\n        /* \"#utility.yul\":6021:6025   */\n      0x22\n        /* \"#utility.yul\":6018:6019   */\n      0x04\n        /* \"#utility.yul\":6011:6026   */\n      mstore\n        /* \"#utility.yul\":6045:6049   */\n      0x24\n        /* \"#utility.yul\":6042:6043   */\n      0x00\n        /* \"#utility.yul\":6035:6050   */\n      revert\n        /* \"#utility.yul\":6062:6382   */\n    tag_29:\n        /* \"#utility.yul\":6106:6112   */\n      0x00\n        /* \"#utility.yul\":6143:6144   */\n      0x02\n        /* \"#utility.yul\":6137:6141   */\n      dup3\n        /* \"#utility.yul\":6133:6145   */\n      div\n        /* \"#utility.yul\":6123:6145   */\n      swap1\n      pop\n        /* \"#utility.yul\":6190:6191   */\n      0x01\n        /* \"#utility.yul\":6184:6188   */\n      dup3\n        /* \"#utility.yul\":6180:6192   */\n      and\n        /* \"#utility.yul\":6211:6229   */\n      dup1\n        /* \"#utility.yul\":6201:6282   */\n      tag_147\n      jumpi\n        /* \"#utility.yul\":6267:6271   */\n      0x7f\n        /* \"#utility.yul\":6259:6265   */\n      dup3\n        /* \"#utility.yul\":6255:6272   */\n      and\n        /* \"#utility.yul\":6245:6272   */\n      swap2\n      pop\n        /* \"#utility.yul\":6201:6282   */\n    tag_147:\n        /* \"#utility.yul\":6329:6331   */\n      0x20\n        /* \"#utility.yul\":6321:6327   */\n      dup3\n        /* \"#utility.yul\":6318:6332   */\n      lt\n        /* \"#utility.yul\":6298:6316   */\n      dup2\n        /* \"#utility.yul\":6295:6333   */\n      sub\n        /* \"#utility.yul\":6292:6376   */\n      tag_148\n      jumpi\n        /* \"#utility.yul\":6348:6366   */\n      tag_149\n      tag_63\n      jump\t// in\n    tag_149:\n        /* \"#utility.yul\":6292:6376   */\n    tag_148:\n        /* \"#utility.yul\":6113:6382   */\n      pop\n        /* \"#utility.yul\":6062:6382   */\n      swap2\n      swap1\n      pop\n      jump\t// out\n        /* \"#utility.yul\":6388:6529   */\n    tag_64:\n        /* \"#utility.yul\":6437:6441   */\n      0x00\n        /* \"#utility.yul\":6460:6463   */\n      dup2\n        /* \"#utility.yul\":6452:6463   */\n      swap1\n      pop\n        /* \"#utility.yul\":6483:6486   */\n      dup2\n        /* \"#utility.yul\":6480:6481   */\n      0x00\n        /* \"#utility.yul\":6473:6487   */\n      mstore\n        /* \"#utility.yul\":6517:6521   */\n      0x20\n        /* \"#utility.yul\":6514:6515   */\n      0x00\n        /* \"#utility.yul\":6504:6522   */\n      keccak256\n        /* \"#utility.yul\":6496:6522   */\n      swap1\n      pop\n        /* \"#utility.yul\":6388:6529   */\n      swap2\n      swap1\n      pop\n      jump\t// out\n        /* \"#utility.yul\":6535:6628   */\n    tag_65:\n        /* \"#utility.yul\":6572:6578   */\n      0x00\n        /* \"#utility.yul\":6619:6621   */\n      0x20\n        /* \"#utility.yul\":6614:6616   */\n      0x1f\n        /* \"#utility.yul\":6607:6612   */\n      dup4\n        /* \"#utility.yul\":6603:6617   */\n      add\n        /* \"#utility.yul\":6599:6622   */\n      div\n        /* \"#utility.yul\":6589:6622   */\n      swap1\n      pop\n        /* \"#utility.yul\":6535:6628   */\n      swap2\n      swap1\n      pop\n      jump\t// out\n        /* \"#utility.yul\":6634:6741   */\n    tag_66:\n        /* \"#utility.yul\":6678:6686   */\n      0x00\n        /* \"#utility.yul\":6728:6733   */\n      dup3\n        /* \"#utility.yul\":6722:6726   */\n      dup3\n        /* \"#utility.yul\":6718:6734   */\n      shl\n        /* \"#utility.yul\":6697:6734   */\n      swap1\n      pop\n        /* \"#utility.yul\":6634:6741   */\n      swap3\n      swap2\n      pop\n      pop\n      jump\t// out\n        /* \"#utility.yul\":6747:7140   */\n    tag_67:\n        /* \"#utility.yul\":6816:6822   */\n      0x00\n        /* \"#utility.yul\":6866:6867   */\n      0x08\n        /* \"#utility.yul\":6854:6864   */\n      dup4\n        /* \"#utility.yul\":6850:6868   */\n      mul\n        /* \"#utility.yul\":6889:6986   */\n      tag_154\n        /* \"#utility.yul\":6919:6985   */\n      0xffffffffffffffffffffffffffffffffffffffffffffffffffffffffffffffff\n        /* \"#utility.yul\":6908:6917   */\n      dup3\n        /* \"#utility.yul\":6889:6986   */\n      tag_66\n      jump\t// in\n    tag_154:\n        /* \"#utility.yul\":7007:7046   */\n      tag_155\n        /* \"#utility.yul\":7037:7045   */\n      dup7\n        /* \"#utility.yul\":7026:7035   */\n      dup4\n        /* \"#utility.yul\":7007:7046   */\n      tag_66\n      jump\t// in\n    tag_155:\n        /* \"#utility.yul\":6995:7046   */\n      swap6\n      pop\n        /* \"#utility.yul\":7079:7083   */\n      dup1\n        /* \"#utility.yul\":7075:7084   */\n      not\n        /* \"#utility.yul\":7068:7073   */\n      dup5\n        /* \"#utility.yul\":7064:7085   */\n      and\n        /* \"#utility.yul\":7055:7085   */\n      swap4\n      pop\n        /* \"#utility.yul\":7128:7132   */\n      dup1\n        /* \"#utility.yul\":7118:7126   */\n      dup7\n        /* \"#utility.yul\":7114:7133   */\n      and\n        /* \"#utility.yul\":7107:7112   */\n      dup5\n        /* \"#utility.yul\":7104:7134   */\n      or\n        /* \"#utility.yul\":7094:7134   */\n      swap3\n      pop\n        /* \"#utility.yul\":6823:7140   */\n      pop\n      pop\n        /* \"#utility.yul\":6747:7140   */\n      swap4\n      swap3\n      pop\n      pop\n      pop\n      jump\t// out\n        /* \"#utility.yul\":7146:7206   */\n    tag_68:\n        /* \"#utility.yul\":7174:7177   */\n      0x00\n        /* \"#utility.yul\":7195:7200   */\n      dup2\n        /* \"#utility.yul\":7188:7200   */\n      swap1\n      pop\n        /* \"#utility.yul\":7146:7206   */\n      swap2\n      swap1\n      pop\n      jump\t// out\n        /* \"#utility.yul\":7212:7354   */\n    tag_69:\n        /* \"#utility.yul\":7262:7271   */\n      0x00\n        /* \"#utility.yul\":7295:7348   */\n      tag_158\n        /* \"#utility.yul\":7313:7347   */\n      tag_159\n        /* \"#utility.yul\":7322:7346   */\n      tag_160\n        /* \"#utility.yul\":7340:7345   */\n      dup5\n        /* \"#utility.yul\":7322:7346   */\n      tag_55\n      jump\t// in\n    tag_160:\n        /* \"#utility.yul\":7313:7347   */\n      tag_68\n      jump\t// in\n    tag_159:\n        /* \"#utility.yul\":7295:7348   */\n      tag_55\n      jump\t// in\n    tag_158:\n        /* \"#utility.yul\":7282:7348   */\n      swap1\n      pop\n        /* \"#utility.yul\":7212:7354   */\n      swap2\n      swap1\n      pop\n      jump\t// out\n        /* \"#utility.yul\":7360:7435   */\n    tag_70:\n        /* \"#utility.yul\":7403:7406   */\n      0x00\n        /* \"#utility.yul\":7424:7429   */\n      dup2\n        /* \"#utility.yul\":7417:7429   */\n      swap1\n      pop\n        /* \"#utility.yul\":7360:7435   */\n      swap2\n      swap1\n      pop\n      jump\t// out\n        /* \"#utility.yul\":7441:7710   */\n    tag_71:\n        /* \"#utility.yul\":7551:7590   */\n      tag_163\n        /* \"#utility.yul\":7582:7589   */\n      dup4\n        /* \"#utility.yul\":7551:7590   */\n      tag_69\n      jump\t// in\n    tag_163:\n        /* \"#utility.yul\":7612:7703   */\n      tag_164\n        /* \"#utility.yul\":7661:7702   */\n      tag_165\n        /* \"#utility.yul\":7685:7701   */\n      dup3\n        /* \"#utility.yul\":7661:7702   */\n      tag_70\n      jump\t// in\n    tag_165:\n        /* \"#utility.yul\":7653:7659   */\n      dup5\n        /* \"#utility.yul\":7646:7650   */\n      dup5\n        /* \"#utility.yul\":7640:7651   */\n      sload\n        /* \"#utility.yul\":7612:7703   */\n      tag_67\n      jump\t// in\n    tag_164:\n        /* \"#utility.yul\":7606:7610   */\n      dup3\n        /* \"#utility.yul\":7599:7704   */\n      sstore\n        /* \"#utility.yul\":7517:7710   */\n      pop\n        /* \"#utility.yul\":7441:7710   */\n      pop\n      pop\n      pop\n      jump\t// out\n        /* \"#utility.yul\":7716:7789   */\n    tag_72:\n        /* \"#utility.yul\":7761:7764   */\n      0x00\n        /* \"#utility.yul\":7716:7789   */\n      swap1\n      jump\t// out\n        /* \"#utility.yul\":7795:7984   */\n    tag_73:\n        /* \"#utility.yul\":7872:7904   */\n      tag_168\n      tag_72\n      jump\t// in\n    tag_168:\n        /* \"#utility.yul\":7913:7978   */\n      tag_169\n        /* \"#utility.yul\":7971:7977   */\n      dup2\n        /* \"#utility.yul\":7963:7969   */\n      dup5\n        /* \"#utility.yul\":7957:7961   */\n      dup5\n        /* \"#utility.yul\":7913:7978   */\n      tag_71\n      jump\t// in\n    tag_169:\n        /* \"#utility.yul\":7848:7984   */\n      pop\n        /* \"#utility.yul\":7795:7984   */\n      pop\n      pop\n      jump\t// out\n        /* \"#utility.yul\":7990:8176   */\n    tag_74:\n        /* \"#utility.yul\":8050:8170   */\n    tag_171:\n        /* \"#utility.yul\":8067:8070   */\n      dup2\n        /* \"#utility.yul\":8060:8065   */\n      dup2\n        /* \"#utility.yul\":8057:8071   */\n      lt\n        /* \"#utility.yul\":8050:8170   */\n      iszero\n      tag_173\n      jumpi\n        /* \"#utility.yul\":8121:8160   */\n      tag_174\n        /* \"#utility.yul\":8158:8159   */\n      0x00\n        /* \"#utility.yul\":8151:8156   */\n      dup3\n        /* \"#utility.yul\":8121:8160   */\n      tag_73\n      jump\t// in\n    tag_174:\n        /* \"#utility.yul\":8094:8095   */\n      0x01\n        /* \"#utility.yul\":8087:8092   */\n      dup2\n        /* \"#utility.yul\":8083:8096   */\n      add\n        /* \"#utility.yul\":8074:8096   */\n      swap1\n      pop\n        /* \"#utility.yul\":8050:8170   */\n      jump(tag_171)\n    tag_173:\n        /* \"#utility.yul\":7990:8176   */\n      pop\n      pop\n      jump\t// out\n        /* \"#utility.yul\":8182:8725   */\n    tag_75:\n        /* \"#utility.yul\":8283:8285   */\n      0x1f\n        /* \"#utility.yul\":8278:8281   */\n      dup3\n        /* \"#utility.yul\":8275:8286   */\n      gt\n        /* \"#utility.yul\":8272:8718   */\n      iszero\n      tag_176\n      jumpi\n        /* \"#utility.yul\":8317:8355   */\n      tag_177\n        /* \"#utility.yul\":8349:8354   */\n      dup2\n        /* \"#utility.yul\":8317:8355   */\n      tag_64\n      jump\t// in\n    tag_177:\n        /* \"#utility.yul\":8401:8430   */\n      tag_178\n        /* \"#utility.yul\":8419:8429   */\n      dup5\n        /* \"#utility.yul\":8401:8430   */\n      tag_65\n      jump\t// in\n    tag_178:\n        /* \"#utility.yul\":8391:8399   */\n      dup2\n        /* \"#utility.yul\":8387:8431   */\n      add\n        /* \"#utility.yul\":8584:8586   */\n      0x20\n        /* \"#utility.yul\":8572:8582   */\n      dup6\n        /* \"#utility.yul\":8569:8587   */\n      lt\n        /* \"#utility.yul\":8566:8615   */\n      iszero\n      tag_179\n      jumpi\n        /* \"#utility.yul\":8605:8613   */\n      dup2\n        /* \"#utility.yul\":8590:8613   */\n      swap1\n      pop\n        /* \"#utility.yul\":8566:8615   */\n    tag_179:\n        /* \"#utility.yul\":8628:8708   */\n      tag_180\n        /* \"#utility.yul\":8684:8706   */\n      tag_181\n        /* \"#utility.yul\":8702:8705   */\n      dup6\n        /* \"#utility.yul\":8684:8706   */\n      tag_65\n      jump\t// in\n    tag_181:\n        /* \"#utility.yul\":8674:8682   */\n      dup4\n        /* \"#utility.yul\":8670:8707   */\n      add\n        /* \"#utility.yul\":8657:8668   */\n      dup3\n        /* \"#utility.yul\":8628:8708   */\n      tag_74\n      jump\t// in\n    tag_180:\n        /* \"#utility.yul\":8287:8718   */\n      pop\n      pop\n        /* \"#utility.yul\":8272:8718   */\n    tag_176:\n        /* \"#utility.yul\":8182:8725   */\n      pop\n      pop\n      pop\n      jump\t// out\n        /* \"#utility.yul\":8731:8848   */\n    tag_76:\n        /* \"#utility.yul\":8785:8793   */\n      0x00\n        /* \"#utility.yul\":8835:8840   */\n      dup3\n        /* \"#utility.yul\":8829:8833   */\n      dup3\n        /* \"#utility.yul\":8825:8841   */\n      shr\n        /* \"#utility.yul\":8804:8841   */\n      swap1\n      pop\n        /* \"#utility.yul\":8731:8848   */\n      swap3\n      swap2\n      pop\n      pop\n      jump\t// out\n        /* \"#utility.yul\":8854:9023   */\n    tag_77:\n        /* \"#utility.yul\":8898:8904   */\n      0x00\n        /* \"#utility.yul\":8931:8982   */\n      tag_184\n        /* \"#utility.yul\":8979:8980   */\n      0x00\n        /* \"#utility.yul\":8975:8981   */\n      not\n        /* \"#utility.yul\":8967:8972   */\n      dup5\n        /* \"#utility.yul\":8964:8965   */\n      0x08\n        /* \"#utility.yul\":8960:8973   */\n      mul\n        /* \"#utility.yul\":8931:8982   */\n      tag_76\n      jump\t// in\n    tag_184:\n        /* \"#utility.yul\":8927:8983   */\n      not\n        /* \"#utility.yul\":9012:9016   */\n      dup1\n        /* \"#utility.yul\":9006:9010   */\n      dup4\n        /* \"#utility.yul\":9002:9017   */\n      and\n        /* \"#utility.yul\":8992:9017   */\n      swap2\n      pop\n        /* \"#utility.yul\":8905:9023   */\n      pop\n        /* \"#utility.yul\":8854:9023   */\n      swap3\n      swap2\n      pop\n      pop\n      jump\t// out\n        /* \"#utility.yul\":9028:9323   */\n    tag_78:\n        /* \"#utility.yul\":9104:9108   */\n      0x00\n        /* \"#utility.yul\":9250:9279   */\n      tag_186\n        /* \"#utility.yul\":9275:9278   */\n      dup4\n        /* \"#utility.yul\":9269:9273   */\n      dup4\n        /* \"#utility.yul\":9250:9279   */\n      tag_77\n      jump\t// in\n    tag_186:\n        /* \"#utility.yul\":9242:9279   */\n      swap2\n      pop\n        /* \"#utility.yul\":9312:9315   */\n      dup3\n        /* \"#utility.yul\":9309:9310   */\n      0x02\n        /* \"#utility.yul\":9305:9316   */\n      mul\n        /* \"#utility.yul\":9299:9303   */\n      dup3\n        /* \"#utility.yul\":9296:9317   */\n      or\n        /* \"#utility.yul\":9288:9317   */\n      swap1\n      pop\n        /* \"#utility.yul\":9028:9323   */\n      swap3\n      swap2\n      pop\n      pop\n      jump\t// out\n        /* \"#utility.yul\":9328:10723   */\n    tag_26:\n        /* \"#utility.yul\":9445:9482   */\n      tag_188\n        /* \"#utility.yul\":9478:9481   */\n      dup3\n        /* \"#utility.yul\":9445:9482   */\n      tag_59\n      jump\t// in\n    tag_188:\n        /* \"#utility.yul\":9547:9565   */\n      0xffffffffffffffff\n        /* \"#utility.yul\":9539:9545   */\n      dup2\n        /* \"#utility.yul\":9536:9566   */\n      gt\n        /* \"#utility.yul\":9533:9589   */\n      iszero\n      tag_189\n      jumpi\n        /* \"#utility.yul\":9569:9587   */\n      tag_190\n      tag_48\n      jump\t// in\n    tag_190:\n        /* \"#utility.yul\":9533:9589   */\n    tag_189:\n        /* \"#utility.yul\":9613:9651   */\n      tag_191\n        /* \"#utility.yul\":9645:9649   */\n      dup3\n        /* \"#utility.yul\":9639:9650   */\n      sload\n        /* \"#utility.yul\":9613:9651   */\n      tag_29\n      jump\t// in\n    tag_191:\n        /* \"#utility.yul\":9698:9765   */\n      tag_192\n        /* \"#utility.yul\":9758:9764   */\n      dup3\n        /* \"#utility.yul\":9750:9756   */\n      dup3\n        /* \"#utility.yul\":9744:9748   */\n      dup6\n        /* \"#utility.yul\":9698:9765   */\n      tag_75\n      jump\t// in\n    tag_192:\n        /* \"#utility.yul\":9792:9793   */\n      0x00\n        /* \"#utility.yul\":9816:9820   */\n      0x20\n        /* \"#utility.yul\":9803:9820   */\n      swap1\n      pop\n        /* \"#utility.yul\":9848:9850   */\n      0x1f\n        /* \"#utility.yul\":9840:9846   */\n      dup4\n        /* \"#utility.yul\":9837:9851   */\n      gt\n        /* \"#utility.yul\":9865:9866   */\n      0x01\n        /* \"#utility.yul\":9860:10478   */\n      dup2\n      eq\n      tag_194\n      jumpi\n        /* \"#utility.yul\":10522:10523   */\n      0x00\n        /* \"#utility.yul\":10539:10545   */\n      dup5\n        /* \"#utility.yul\":10536:10613   */\n      iszero\n      tag_195\n      jumpi\n        /* \"#utility.yul\":10588:10597   */\n      dup3\n        /* \"#utility.yul\":10583:10586   */\n      dup8\n        /* \"#utility.yul\":10579:10598   */\n      add\n        /* \"#utility.yul\":10573:10599   */\n      mload\n        /* \"#utility.yul\":10564:10599   */\n      swap1\n      pop\n        /* \"#utility.yul\":10536:10613   */\n    tag_195:\n        /* \"#utility.yul\":10639:10706   */\n      tag_196\n        /* \"#utility.yul\":10699:10705   */\n      dup6\n        /* \"#utility.yul\":10692:10697   */\n      dup3\n        /* \"#utility.yul\":10639:10706   */\n      tag_78\n      jump\t// in\n    tag_196:\n        /* \"#utility.yul\":10633:10637   */\n      dup7\n        /* \"#utility.yul\":10626:10707   */\n      sstore\n        /* \"#utility.yul\":10495:10717   */\n      pop\n        /* \"#utility.yul\":9830:10717   */\n      jump(tag_193)\n        /* \"#utility.yul\":9860:10478   */\n    tag_194:\n        /* \"#utility.yul\":9912:9916   */\n      0x1f\n        /* \"#utility.yul\":9908:9917   */\n      not\n        /* \"#utility.yul\":9900:9906   */\n      dup5\n        /* \"#utility.yul\":9896:9918   */\n      and\n        /* \"#utility.yul\":9946:9983   */\n      tag_197\n        /* \"#utility.yul\":9978:9982   */\n      dup7\n        /* \"#utility.yul\":9946:9983   */\n      tag_64\n      jump\t// in\n    tag_197:\n        /* \"#utility.yul\":10005:10006   */\n      0x00\n        /* \"#utility.yul\":10019:10227   */\n    tag_198:\n        /* \"#utility.yul\":10033:10040   */\n      dup3\n        /* \"#utility.yul\":10030:10031   */\n      dup2\n        /* \"#utility.yul\":10027:10041   */\n      lt\n        /* \"#utility.yul\":10019:10227   */\n      iszero\n      tag_200\n      jumpi\n        /* \"#utility.yul\":10112:10121   */\n      dup5\n        /* \"#utility.yul\":10107:10110   */\n      dup10\n        /* \"#utility.yul\":10103:10122   */\n      add\n        /* \"#utility.yul\":10097:10123   */\n      mload\n        /* \"#utility.yul\":10089:10095   */\n      dup3\n        /* \"#utility.yul\":10082:10124   */\n      sstore\n        /* \"#utility.yul\":10163:10164   */\n      0x01\n        /* \"#utility.yul\":10155:10161   */\n      dup3\n        /* \"#utility.yul\":10151:10165   */\n      add\n        /* \"#utility.yul\":10141:10165   */\n      swap2\n      pop\n        /* \"#utility.yul\":10210:10212   */\n      0x20\n        /* \"#utility.yul\":10199:10208   */\n      dup6\n        /* \"#utility.yul\":10195:10213   */\n      add\n        /* \"#utility.yul\":10182:10213   */\n      swap5\n      pop\n        /* \"#utility.yul\":10056:10060   */\n      0x20\n        /* \"#utility.yul\":10053:10054   */\n      dup2\n        /* \"#utility.yul\":10049:10061   */\n      add\n        /* \"#utility.yul\":10044:10061   */\n      swap1\n      pop\n        /* \"#utility.yul\":10019:10227   */\n      jump(tag_198)\n    tag_200:\n        /* \"#utility.yul\":10255:10261   */\n      dup7\n        /* \"#utility.yul\":10246:10253   */\n      dup4\n        /* \"#utility.yul\":10243:10262   */\n      lt\n        /* \"#utility.yul\":10240:10419   */\n      iszero\n      tag_201\n      jumpi\n        /* \"#utility.yul\":10313:10322   */\n      dup5\n        /* \"#utility.yul\":10308:10311   */\n      dup10\n        /* \"#utility.yul\":10304:10323   */\n      add\n        /* \"#utility.yul\":10298:10324   */\n      mload\n        /* \"#utility.yul\":10356:10404   */\n      tag_202\n        /* \"#utility.yul\":10398:10402   */\n      0x1f\n        /* \"#utility.yul\":10390:10396   */\n      dup10\n        /* \"#utility.yul\":10386:10403   */\n      and\n        /* \"#utility.yul\":10375:10384   */\n      dup3\n        /* \"#utility.yul\":10356:10404   */\n      tag_77\n      jump\t// in\n    tag_202:\n        /* \"#utility.yul\":10348:10354   */\n      dup4\n        /* \"#utility.yul\":10341:10405   */\n      sstore\n        /* \"#utility.yul\":10263:10419   */\n      pop\n        /* \"#utility.yul\":10240:10419   */\n    tag_201:\n        /* \"#utility.yul\":10465:10466   */\n      0x01\n        /* \"#utility.yul\":10461:10462   */\n      0x02\n        /* \"#utility.yul\":10453:10459   */\n      dup9\n        /* \"#utility.yul\":10449:10463   */\n      mul\n        /* \"#utility.yul\":10445:10467   */\n      add\n        /* \"#utility.yul\":10439:10443   */\n      dup9\n        /* \"#utility.yul\":10432:10468   */\n      sstore\n        /* \"#utility.yul\":9867:10478   */\n      pop\n      pop\n      pop\n        /* \"#utility.yul\":9830:10717   */\n    tag_193:\n      pop\n        /* \"#utility.yul\":9420:10723   */\n      pop\n      pop\n      pop\n        /* \"#utility.yul\":9328:10723   */\n      pop\n      pop\n      jump\t// out\n        /* \"#utility.yul\":10729:10909   */\n    tag_79:\n        /* \"#utility.yul\":10777:10854   */\n      0x4e487b7100000000000000000000000000000000000000000000000000000000\n        /* \"#utility.yul\":10774:10775   */\n      0x00\n        /* \"#utility.yul\":10767:10855   */\n      mstore\n        /* \"#utility.yul\":10874:10878   */\n      0x11\n        /* \"#utility.yul\":10871:10872   */\n      0x04\n        /* \"#utility.yul\":10864:10879   */\n      mstore\n        /* \"#utility.yul\":10898:10902   */\n      0x24\n        /* \"#utility.yul\":10895:10896   */\n      0x00\n        /* \"#utility.yul\":10888:10903   */\n      revert\n        /* \"#utility.yul\":10915:11106   */\n    tag_41:\n        /* \"#utility.yul\":10955:10958   */\n      0x00\n        /* \"#utility.yul\":10974:10994   */\n      tag_205\n        /* \"#utility.yul\":10992:10993   */\n      dup3\n        /* \"#utility.yul\":10974:10994   */\n      tag_55\n      jump\t// in\n    tag_205:\n        /* \"#utility.yul\":10969:10994   */\n      swap2\n      pop\n        /* \"#utility.yul\":11008:11028   */\n      tag_206\n        /* \"#utility.yul\":11026:11027   */\n      dup4\n        /* \"#utility.yul\":11008:11028   */\n      tag_55\n      jump\t// in\n    tag_206:\n        /* \"#utility.yul\":11003:11028   */\n      swap3\n      pop\n        /* \"#utility.yul\":11051:11052   */\n      dup3\n        /* \"#utility.yul\":11048:11049   */\n      dup3\n        /* \"#utility.yul\":11044:11053   */\n      add\n        /* \"#utility.yul\":11037:11053   */\n      swap1\n      pop\n        /* \"#utility.yul\":11072:11075   */\n      dup1\n        /* \"#utility.yul\":11069:11070   */\n      dup3\n        /* \"#utility.yul\":11066:11076   */\n      gt\n        /* \"#utility.yul\":11063:11099   */\n      iszero\n      tag_207\n      jumpi\n        /* \"#utility.yul\":11079:11097   */\n      tag_208\n      tag_79\n      jump\t// in\n    tag_208:\n        /* \"#utility.yul\":11063:11099   */\n    tag_207:\n        /* \"#utility.yul\":10915:11106   */\n      swap3\n      swap2\n      pop\n      pop\n      jump\t// out\n\n    auxdata: 0xa2646970667358221220738e2f3e5440432e147295de6ccc50ceef9237ce6141985a8ca27c85a759993464736f6c634300081a0033\n}\n",
				"bytecode": {
					"linkReferences": {},
					"object": "60806040525f80553480156011575f80fd5b503360025f6101000a81548173ffffffffffffffffffffffffffffffffffffffff021916908373ffffffffffffffffffffffffffffffffffffffff1602179055506109148061005f5f395ff3fe608060405234801561000f575f80fd5b506004361061003f575f3560e01c806322f5b58d14610043578063267c68e01461005f5780639e7a13ad1461007d575b5f80fd5b61005d60048036038101906100589190610416565b6100af565b005b610067610178565b60405161007491906104a4565b60405180910390f35b610097600480360381019061009291906104e7565b61017d565b6040516100a693929190610572565b60405180910390f35b60025f9054906101000a900473ffffffffffffffffffffffffffffffffffffffff1673ffffffffffffffffffffffffffffffffffffffff163373ffffffffffffffffffffffffffffffffffffffff1614610107575f80fd5b61010f6102af565b60405180606001604052805f5481526020018381526020018281525060015f805481526020019081526020015f205f820151815f0155602082015181600101908161015a91906107af565b50604082015181600201908161017091906107af565b509050505050565b5f5481565b6001602052805f5260405f205f91509050805f0154908060010180546101a2906105e2565b80601f01602080910402602001604051908101604052809291908181526020018280546101ce906105e2565b80156102195780601f106101f057610100808354040283529160200191610219565b820191905f5260205f20905b8154815290600101906020018083116101fc57829003601f168201915b50505050509080600201805461022e906105e2565b80601f016020809104026020016040519081016040528092919081815260200182805461025a906105e2565b80156102a55780601f1061027c576101008083540402835291602001916102a5565b820191905f5260205f20905b81548152906001019060200180831161028857829003601f168201915b5050505050905083565b60015f808282546102c091906108ab565b92505081905550565b5f604051905090565b5f80fd5b5f80fd5b5f80fd5b5f80fd5b5f601f19601f8301169050919050565b7f4e487b71000000000000000000000000000000000000000000000000000000005f52604160045260245ffd5b610328826102e2565b810181811067ffffffffffffffff82111715610347576103466102f2565b5b80604052505050565b5f6103596102c9565b9050610365828261031f565b919050565b5f67ffffffffffffffff821115610384576103836102f2565b5b61038d826102e2565b9050602081019050919050565b828183375f83830152505050565b5f6103ba6103b58461036a565b610350565b9050828152602081018484840111156103d6576103d56102de565b5b6103e184828561039a565b509392505050565b5f82601f8301126103fd576103fc6102da565b5b813561040d8482602086016103a8565b91505092915050565b5f806040838503121561042c5761042b6102d2565b5b5f83013567ffffffffffffffff811115610449576104486102d6565b5b610455858286016103e9565b925050602083013567ffffffffffffffff811115610476576104756102d6565b5b610482858286016103e9565b9150509250929050565b5f819050919050565b61049e8161048c565b82525050565b5f6020820190506104b75f830184610495565b92915050565b6104c68161048c565b81146104d0575f80fd5b50565b5f813590506104e1816104bd565b92915050565b5f602082840312156104fc576104fb6102d2565b5b5f610509848285016104d3565b91505092915050565b5f81519050919050565b5f82825260208201905092915050565b8281835e5f83830152505050565b5f61054482610512565b61054e818561051c565b935061055e81856020860161052c565b610567816102e2565b840191505092915050565b5f6060820190506105855f830186610495565b8181036020830152610597818561053a565b905081810360408301526105ab818461053a565b9050949350505050565b7f4e487b71000000000000000000000000000000000000000000000000000000005f52602260045260245ffd5b5f60028204905060018216806105f957607f821691505b60208210810361060c5761060b6105b5565b5b50919050565b5f819050815f5260205f209050919050565b5f6020601f8301049050919050565b5f82821b905092915050565b5f6008830261066e7fffffffffffffffffffffffffffffffffffffffffffffffffffffffffffffffff82610633565b6106788683610633565b95508019841693508086168417925050509392505050565b5f819050919050565b5f6106b36106ae6106a98461048c565b610690565b61048c565b9050919050565b5f819050919050565b6106cc83610699565b6106e06106d8826106ba565b84845461063f565b825550505050565b5f90565b6106f46106e8565b6106ff8184846106c3565b505050565b5b81811015610722576107175f826106ec565b600181019050610705565b5050565b601f8211156107675761073881610612565b61074184610624565b81016020851015610750578190505b61076461075c85610624565b830182610704565b50505b505050565b5f82821c905092915050565b5f6107875f198460080261076c565b1980831691505092915050565b5f61079f8383610778565b9150826002028217905092915050565b6107b882610512565b67ffffffffffffffff8111156107d1576107d06102f2565b5b6107db82546105e2565b6107e6828285610726565b5f60209050601f831160018114610817575f8415610805578287015190505b61080f8582610794565b865550610876565b601f19841661082586610612565b5f5b8281101561084c57848901518255600182019150602085019450602081019050610827565b868310156108695784890151610865601f891682610778565b8355505b6001600288020188555050505b505050505050565b7f4e487b71000000000000000000000000000000000000000000000000000000005f52601160045260245ffd5b5f6108b58261048c565b91506108c08361048c565b92508282019050808211156108d8576108d761087e565b5b9291505056fea2646970667358221220738e2f3e5440432e147295de6ccc50ceef9237ce6141985a8ca27c85a759993464736f6c634300081a0033",
					"opcodes": "PUSH1 0x80 PUSH1 0x40 MSTORE PUSH0 DUP1 SSTORE CALLVALUE DUP1 ISZERO PUSH1 0x11 JUMPI PUSH0 DUP1 REVERT JUMPDEST POP CALLER PUSH1 0x2 PUSH0 PUSH2 0x100 EXP DUP2 SLOAD DUP2 PUSH20 0xFFFFFFFFFFFFFFFFFFFFFFFFFFFFFFFFFFFFFFFF MUL NOT AND SWAP1 DUP4 PUSH20 0xFFFFFFFFFFFFFFFFFFFFFFFFFFFFFFFFFFFFFFFF AND MUL OR SWAP1 SSTORE POP PUSH2 0x914 DUP1 PUSH2 0x5F PUSH0 CODECOPY PUSH0 RETURN INVALID PUSH1 0x80 PUSH1 0x40 MSTORE CALLVALUE DUP1 ISZERO PUSH2 0xF JUMPI PUSH0 DUP1 REVERT JUMPDEST POP PUSH1 0x4 CALLDATASIZE LT PUSH2 0x3F JUMPI PUSH0 CALLDATALOAD PUSH1 0xE0 SHR DUP1 PUSH4 0x22F5B58D EQ PUSH2 0x43 JUMPI DUP1 PUSH4 0x267C68E0 EQ PUSH2 0x5F JUMPI DUP1 PUSH4 0x9E7A13AD EQ PUSH2 0x7D JUMPI JUMPDEST PUSH0 DUP1 REVERT JUMPDEST PUSH2 0x5D PUSH1 0x4 DUP1 CALLDATASIZE SUB DUP2 ADD SWAP1 PUSH2 0x58 SWAP2 SWAP1 PUSH2 0x416 JUMP JUMPDEST PUSH2 0xAF JUMP JUMPDEST STOP JUMPDEST PUSH2 0x67 PUSH2 0x178 JUMP JUMPDEST PUSH1 0x40 MLOAD PUSH2 0x74 SWAP2 SWAP1 PUSH2 0x4A4 JUMP JUMPDEST PUSH1 0x40 MLOAD DUP1 SWAP2 SUB SWAP1 RETURN JUMPDEST PUSH2 0x97 PUSH1 0x4 DUP1 CALLDATASIZE SUB DUP2 ADD SWAP1 PUSH2 0x92 SWAP2 SWAP1 PUSH2 0x4E7 JUMP JUMPDEST PUSH2 0x17D JUMP JUMPDEST PUSH1 0x40 MLOAD PUSH2 0xA6 SWAP4 SWAP3 SWAP2 SWAP1 PUSH2 0x572 JUMP JUMPDEST PUSH1 0x40 MLOAD DUP1 SWAP2 SUB SWAP1 RETURN JUMPDEST PUSH1 0x2 PUSH0 SWAP1 SLOAD SWAP1 PUSH2 0x100 EXP SWAP1 DIV PUSH20 0xFFFFFFFFFFFFFFFFFFFFFFFFFFFFFFFFFFFFFFFF AND PUSH20 0xFFFFFFFFFFFFFFFFFFFFFFFFFFFFFFFFFFFFFFFF AND CALLER PUSH20 0xFFFFFFFFFFFFFFFFFFFFFFFFFFFFFFFFFFFFFFFF AND EQ PUSH2 0x107 JUMPI PUSH0 DUP1 REVERT JUMPDEST PUSH2 0x10F PUSH2 0x2AF JUMP JUMPDEST PUSH1 0x40 MLOAD DUP1 PUSH1 0x60 ADD PUSH1 0x40 MSTORE DUP1 PUSH0 SLOAD DUP2 MSTORE PUSH1 0x20 ADD DUP4 DUP2 MSTORE PUSH1 0x20 ADD DUP3 DUP2 MSTORE POP PUSH1 0x1 PUSH0 DUP1 SLOAD DUP2 MSTORE PUSH1 0x20 ADD SWAP1 DUP2 MSTORE PUSH1 0x20 ADD PUSH0 KECCAK256 PUSH0 DUP3 ADD MLOAD DUP2 PUSH0 ADD SSTORE PUSH1 0x20 DUP3 ADD MLOAD DUP2 PUSH1 0x1 ADD SWAP1 DUP2 PUSH2 0x15A SWAP2 SWAP1 PUSH2 0x7AF JUMP JUMPDEST POP PUSH1 0x40 DUP3 ADD MLOAD DUP2 PUSH1 0x2 ADD SWAP1 DUP2 PUSH2 0x170 SWAP2 SWAP1 PUSH2 0x7AF JUMP JUMPDEST POP SWAP1 POP POP POP POP JUMP JUMPDEST PUSH0 SLOAD DUP2 JUMP JUMPDEST PUSH1 0x1 PUSH1 0x20 MSTORE DUP1 PUSH0 MSTORE PUSH1 0x40 PUSH0 KECCAK256 PUSH0 SWAP2 POP SWAP1 POP DUP1 PUSH0 ADD SLOAD SWAP1 DUP1 PUSH1 0x1 ADD DUP1 SLOAD PUSH2 0x1A2 SWAP1 PUSH2 0x5E2 JUMP JUMPDEST DUP1 PUSH1 0x1F ADD PUSH1 0x20 DUP1 SWAP2 DIV MUL PUSH1 0x20 ADD PUSH1 0x40 MLOAD SWAP1 DUP2 ADD PUSH1 0x40 MSTORE DUP1 SWAP3 SWAP2 SWAP1 DUP2 DUP2 MSTORE PUSH1 0x20 ADD DUP3 DUP1 SLOAD PUSH2 0x1CE SWAP1 PUSH2 0x5E2 JUMP JUMPDEST DUP1 ISZERO PUSH2 0x219 JUMPI DUP1 PUSH1 0x1F LT PUSH2 0x1F0 JUMPI PUSH2 0x100 DUP1 DUP4 SLOAD DIV MUL DUP4 MSTORE SWAP2 PUSH1 0x20 ADD SWAP2 PUSH2 0x219 JUMP JUMPDEST DUP3 ADD SWAP2 SWAP1 PUSH0 MSTORE PUSH1 0x20 PUSH0 KECCAK256 SWAP1 JUMPDEST DUP2 SLOAD DUP2 MSTORE SWAP1 PUSH1 0x1 ADD SWAP1 PUSH1 0x20 ADD DUP1 DUP4 GT PUSH2 0x1FC JUMPI DUP3 SWAP1 SUB PUSH1 0x1F AND DUP3 ADD SWAP2 JUMPDEST POP POP POP POP POP SWAP1 DUP1 PUSH1 0x2 ADD DUP1 SLOAD PUSH2 0x22E SWAP1 PUSH2 0x5E2 JUMP JUMPDEST DUP1 PUSH1 0x1F ADD PUSH1 0x20 DUP1 SWAP2 DIV MUL PUSH1 0x20 ADD PUSH1 0x40 MLOAD SWAP1 DUP2 ADD PUSH1 0x40 MSTORE DUP1 SWAP3 SWAP2 SWAP1 DUP2 DUP2 MSTORE PUSH1 0x20 ADD DUP3 DUP1 SLOAD PUSH2 0x25A SWAP1 PUSH2 0x5E2 JUMP JUMPDEST DUP1 ISZERO PUSH2 0x2A5 JUMPI DUP1 PUSH1 0x1F LT PUSH2 0x27C JUMPI PUSH2 0x100 DUP1 DUP4 SLOAD DIV MUL DUP4 MSTORE SWAP2 PUSH1 0x20 ADD SWAP2 PUSH2 0x2A5 JUMP JUMPDEST DUP3 ADD SWAP2 SWAP1 PUSH0 MSTORE PUSH1 0x20 PUSH0 KECCAK256 SWAP1 JUMPDEST DUP2 SLOAD DUP2 MSTORE SWAP1 PUSH1 0x1 ADD SWAP1 PUSH1 0x20 ADD DUP1 DUP4 GT PUSH2 0x288 JUMPI DUP3 SWAP1 SUB PUSH1 0x1F AND DUP3 ADD SWAP2 JUMPDEST POP POP POP POP POP SWAP1 POP DUP4 JUMP JUMPDEST PUSH1 0x1 PUSH0 DUP1 DUP3 DUP3 SLOAD PUSH2 0x2C0 SWAP2 SWAP1 PUSH2 0x8AB JUMP JUMPDEST SWAP3 POP POP DUP2 SWAP1 SSTORE POP JUMP JUMPDEST PUSH0 PUSH1 0x40 MLOAD SWAP1 POP SWAP1 JUMP JUMPDEST PUSH0 DUP1 REVERT JUMPDEST PUSH0 DUP1 REVERT JUMPDEST PUSH0 DUP1 REVERT JUMPDEST PUSH0 DUP1 REVERT JUMPDEST PUSH0 PUSH1 0x1F NOT PUSH1 0x1F DUP4 ADD AND SWAP1 POP SWAP2 SWAP1 POP JUMP JUMPDEST PUSH32 0x4E487B7100000000000000000000000000000000000000000000000000000000 PUSH0 MSTORE PUSH1 0x41 PUSH1 0x4 MSTORE PUSH1 0x24 PUSH0 REVERT JUMPDEST PUSH2 0x328 DUP3 PUSH2 0x2E2 JUMP JUMPDEST DUP2 ADD DUP2 DUP2 LT PUSH8 0xFFFFFFFFFFFFFFFF DUP3 GT OR ISZERO PUSH2 0x347 JUMPI PUSH2 0x346 PUSH2 0x2F2 JUMP JUMPDEST JUMPDEST DUP1 PUSH1 0x40 MSTORE POP POP POP JUMP JUMPDEST PUSH0 PUSH2 0x359 PUSH2 0x2C9 JUMP JUMPDEST SWAP1 POP PUSH2 0x365 DUP3 DUP3 PUSH2 0x31F JUMP JUMPDEST SWAP2 SWAP1 POP JUMP JUMPDEST PUSH0 PUSH8 0xFFFFFFFFFFFFFFFF DUP3 GT ISZERO PUSH2 0x384 JUMPI PUSH2 0x383 PUSH2 0x2F2 JUMP JUMPDEST JUMPDEST PUSH2 0x38D DUP3 PUSH2 0x2E2 JUMP JUMPDEST SWAP1 POP PUSH1 0x20 DUP2 ADD SWAP1 POP SWAP2 SWAP1 POP JUMP JUMPDEST DUP3 DUP2 DUP4 CALLDATACOPY PUSH0 DUP4 DUP4 ADD MSTORE POP POP POP JUMP JUMPDEST PUSH0 PUSH2 0x3BA PUSH2 0x3B5 DUP5 PUSH2 0x36A JUMP JUMPDEST PUSH2 0x350 JUMP JUMPDEST SWAP1 POP DUP3 DUP2 MSTORE PUSH1 0x20 DUP2 ADD DUP5 DUP5 DUP5 ADD GT ISZERO PUSH2 0x3D6 JUMPI PUSH2 0x3D5 PUSH2 0x2DE JUMP JUMPDEST JUMPDEST PUSH2 0x3E1 DUP5 DUP3 DUP6 PUSH2 0x39A JUMP JUMPDEST POP SWAP4 SWAP3 POP POP POP JUMP JUMPDEST PUSH0 DUP3 PUSH1 0x1F DUP4 ADD SLT PUSH2 0x3FD JUMPI PUSH2 0x3FC PUSH2 0x2DA JUMP JUMPDEST JUMPDEST DUP2 CALLDATALOAD PUSH2 0x40D DUP5 DUP3 PUSH1 0x20 DUP7 ADD PUSH2 0x3A8 JUMP JUMPDEST SWAP2 POP POP SWAP3 SWAP2 POP POP JUMP JUMPDEST PUSH0 DUP1 PUSH1 0x40 DUP4 DUP6 SUB SLT ISZERO PUSH2 0x42C JUMPI PUSH2 0x42B PUSH2 0x2D2 JUMP JUMPDEST JUMPDEST PUSH0 DUP4 ADD CALLDATALOAD PUSH8 0xFFFFFFFFFFFFFFFF DUP2 GT ISZERO PUSH2 0x449 JUMPI PUSH2 0x448 PUSH2 0x2D6 JUMP JUMPDEST JUMPDEST PUSH2 0x455 DUP6 DUP3 DUP7 ADD PUSH2 0x3E9 JUMP JUMPDEST SWAP3 POP POP PUSH1 0x20 DUP4 ADD CALLDATALOAD PUSH8 0xFFFFFFFFFFFFFFFF DUP2 GT ISZERO PUSH2 0x476 JUMPI PUSH2 0x475 PUSH2 0x2D6 JUMP JUMPDEST JUMPDEST PUSH2 0x482 DUP6 DUP3 DUP7 ADD PUSH2 0x3E9 JUMP JUMPDEST SWAP2 POP POP SWAP3 POP SWAP3 SWAP1 POP JUMP JUMPDEST PUSH0 DUP2 SWAP1 POP SWAP2 SWAP1 POP JUMP JUMPDEST PUSH2 0x49E DUP2 PUSH2 0x48C JUMP JUMPDEST DUP3 MSTORE POP POP JUMP JUMPDEST PUSH0 PUSH1 0x20 DUP3 ADD SWAP1 POP PUSH2 0x4B7 PUSH0 DUP4 ADD DUP5 PUSH2 0x495 JUMP JUMPDEST SWAP3 SWAP2 POP POP JUMP JUMPDEST PUSH2 0x4C6 DUP2 PUSH2 0x48C JUMP JUMPDEST DUP2 EQ PUSH2 0x4D0 JUMPI PUSH0 DUP1 REVERT JUMPDEST POP JUMP JUMPDEST PUSH0 DUP2 CALLDATALOAD SWAP1 POP PUSH2 0x4E1 DUP2 PUSH2 0x4BD JUMP JUMPDEST SWAP3 SWAP2 POP POP JUMP JUMPDEST PUSH0 PUSH1 0x20 DUP3 DUP5 SUB SLT ISZERO PUSH2 0x4FC JUMPI PUSH2 0x4FB PUSH2 0x2D2 JUMP JUMPDEST JUMPDEST PUSH0 PUSH2 0x509 DUP5 DUP3 DUP6 ADD PUSH2 0x4D3 JUMP JUMPDEST SWAP2 POP POP SWAP3 SWAP2 POP POP JUMP JUMPDEST PUSH0 DUP2 MLOAD SWAP1 POP SWAP2 SWAP1 POP JUMP JUMPDEST PUSH0 DUP3 DUP3 MSTORE PUSH1 0x20 DUP3 ADD SWAP1 POP SWAP3 SWAP2 POP POP JUMP JUMPDEST DUP3 DUP2 DUP4 MCOPY PUSH0 DUP4 DUP4 ADD MSTORE POP POP POP JUMP JUMPDEST PUSH0 PUSH2 0x544 DUP3 PUSH2 0x512 JUMP JUMPDEST PUSH2 0x54E DUP2 DUP6 PUSH2 0x51C JUMP JUMPDEST SWAP4 POP PUSH2 0x55E DUP2 DUP6 PUSH1 0x20 DUP7 ADD PUSH2 0x52C JUMP JUMPDEST PUSH2 0x567 DUP2 PUSH2 0x2E2 JUMP JUMPDEST DUP5 ADD SWAP2 POP POP SWAP3 SWAP2 POP POP JUMP JUMPDEST PUSH0 PUSH1 0x60 DUP3 ADD SWAP1 POP PUSH2 0x585 PUSH0 DUP4 ADD DUP7 PUSH2 0x495 JUMP JUMPDEST DUP2 DUP2 SUB PUSH1 0x20 DUP4 ADD MSTORE PUSH2 0x597 DUP2 DUP6 PUSH2 0x53A JUMP JUMPDEST SWAP1 POP DUP2 DUP2 SUB PUSH1 0x40 DUP4 ADD MSTORE PUSH2 0x5AB DUP2 DUP5 PUSH2 0x53A JUMP JUMPDEST SWAP1 POP SWAP5 SWAP4 POP POP POP POP JUMP JUMPDEST PUSH32 0x4E487B7100000000000000000000000000000000000000000000000000000000 PUSH0 MSTORE PUSH1 0x22 PUSH1 0x4 MSTORE PUSH1 0x24 PUSH0 REVERT JUMPDEST PUSH0 PUSH1 0x2 DUP3 DIV SWAP1 POP PUSH1 0x1 DUP3 AND DUP1 PUSH2 0x5F9 JUMPI PUSH1 0x7F DUP3 AND SWAP2 POP JUMPDEST PUSH1 0x20 DUP3 LT DUP2 SUB PUSH2 0x60C JUMPI PUSH2 0x60B PUSH2 0x5B5 JUMP JUMPDEST JUMPDEST POP SWAP2 SWAP1 POP JUMP JUMPDEST PUSH0 DUP2 SWAP1 POP DUP2 PUSH0 MSTORE PUSH1 0x20 PUSH0 KECCAK256 SWAP1 POP SWAP2 SWAP1 POP JUMP JUMPDEST PUSH0 PUSH1 0x20 PUSH1 0x1F DUP4 ADD DIV SWAP1 POP SWAP2 SWAP1 POP JUMP JUMPDEST PUSH0 DUP3 DUP3 SHL SWAP1 POP SWAP3 SWAP2 POP POP JUMP JUMPDEST PUSH0 PUSH1 0x8 DUP4 MUL PUSH2 0x66E PUSH32 0xFFFFFFFFFFFFFFFFFFFFFFFFFFFFFFFFFFFFFFFFFFFFFFFFFFFFFFFFFFFFFFFF DUP3 PUSH2 0x633 JUMP JUMPDEST PUSH2 0x678 DUP7 DUP4 PUSH2 0x633 JUMP JUMPDEST SWAP6 POP DUP1 NOT DUP5 AND SWAP4 POP DUP1 DUP7 AND DUP5 OR SWAP3 POP POP POP SWAP4 SWAP3 POP POP POP JUMP JUMPDEST PUSH0 DUP2 SWAP1 POP SWAP2 SWAP1 POP JUMP JUMPDEST PUSH0 PUSH2 0x6B3 PUSH2 0x6AE PUSH2 0x6A9 DUP5 PUSH2 0x48C JUMP JUMPDEST PUSH2 0x690 JUMP JUMPDEST PUSH2 0x48C JUMP JUMPDEST SWAP1 POP SWAP2 SWAP1 POP JUMP JUMPDEST PUSH0 DUP2 SWAP1 POP SWAP2 SWAP1 POP JUMP JUMPDEST PUSH2 0x6CC DUP4 PUSH2 0x699 JUMP JUMPDEST PUSH2 0x6E0 PUSH2 0x6D8 DUP3 PUSH2 0x6BA JUMP JUMPDEST DUP5 DUP5 SLOAD PUSH2 0x63F JUMP JUMPDEST DUP3 SSTORE POP POP POP POP JUMP JUMPDEST PUSH0 SWAP1 JUMP JUMPDEST PUSH2 0x6F4 PUSH2 0x6E8 JUMP JUMPDEST PUSH2 0x6FF DUP2 DUP5 DUP5 PUSH2 0x6C3 JUMP JUMPDEST POP POP POP JUMP JUMPDEST JUMPDEST DUP2 DUP2 LT ISZERO PUSH2 0x722 JUMPI PUSH2 0x717 PUSH0 DUP3 PUSH2 0x6EC JUMP JUMPDEST PUSH1 0x1 DUP2 ADD SWAP1 POP PUSH2 0x705 JUMP JUMPDEST POP POP JUMP JUMPDEST PUSH1 0x1F DUP3 GT ISZERO PUSH2 0x767 JUMPI PUSH2 0x738 DUP2 PUSH2 0x612 JUMP JUMPDEST PUSH2 0x741 DUP5 PUSH2 0x624 JUMP JUMPDEST DUP2 ADD PUSH1 0x20 DUP6 LT ISZERO PUSH2 0x750 JUMPI DUP2 SWAP1 POP JUMPDEST PUSH2 0x764 PUSH2 0x75C DUP6 PUSH2 0x624 JUMP JUMPDEST DUP4 ADD DUP3 PUSH2 0x704 JUMP JUMPDEST POP POP JUMPDEST POP POP POP JUMP JUMPDEST PUSH0 DUP3 DUP3 SHR SWAP1 POP SWAP3 SWAP2 POP POP JUMP JUMPDEST PUSH0 PUSH2 0x787 PUSH0 NOT DUP5 PUSH1 0x8 MUL PUSH2 0x76C JUMP JUMPDEST NOT DUP1 DUP4 AND SWAP2 POP POP SWAP3 SWAP2 POP POP JUMP JUMPDEST PUSH0 PUSH2 0x79F DUP4 DUP4 PUSH2 0x778 JUMP JUMPDEST SWAP2 POP DUP3 PUSH1 0x2 MUL DUP3 OR SWAP1 POP SWAP3 SWAP2 POP POP JUMP JUMPDEST PUSH2 0x7B8 DUP3 PUSH2 0x512 JUMP JUMPDEST PUSH8 0xFFFFFFFFFFFFFFFF DUP2 GT ISZERO PUSH2 0x7D1 JUMPI PUSH2 0x7D0 PUSH2 0x2F2 JUMP JUMPDEST JUMPDEST PUSH2 0x7DB DUP3 SLOAD PUSH2 0x5E2 JUMP JUMPDEST PUSH2 0x7E6 DUP3 DUP3 DUP6 PUSH2 0x726 JUMP JUMPDEST PUSH0 PUSH1 0x20 SWAP1 POP PUSH1 0x1F DUP4 GT PUSH1 0x1 DUP2 EQ PUSH2 0x817 JUMPI PUSH0 DUP5 ISZERO PUSH2 0x805 JUMPI DUP3 DUP8 ADD MLOAD SWAP1 POP JUMPDEST PUSH2 0x80F DUP6 DUP3 PUSH2 0x794 JUMP JUMPDEST DUP7 SSTORE POP PUSH2 0x876 JUMP JUMPDEST PUSH1 0x1F NOT DUP5 AND PUSH2 0x825 DUP7 PUSH2 0x612 JUMP JUMPDEST PUSH0 JUMPDEST DUP3 DUP2 LT ISZERO PUSH2 0x84C JUMPI DUP5 DUP10 ADD MLOAD DUP3 SSTORE PUSH1 0x1 DUP3 ADD SWAP2 POP PUSH1 0x20 DUP6 ADD SWAP5 POP PUSH1 0x20 DUP2 ADD SWAP1 POP PUSH2 0x827 JUMP JUMPDEST DUP7 DUP4 LT ISZERO PUSH2 0x869 JUMPI DUP5 DUP10 ADD MLOAD PUSH2 0x865 PUSH1 0x1F DUP10 AND DUP3 PUSH2 0x778 JUMP JUMPDEST DUP4 SSTORE POP JUMPDEST PUSH1 0x1 PUSH1 0x2 DUP9 MUL ADD DUP9 SSTORE POP POP POP JUMPDEST POP POP POP POP POP POP JUMP JUMPDEST PUSH32 0x4E487B7100000000000000000000000000000000000000000000000000000000 PUSH0 MSTORE PUSH1 0x11 PUSH1 0x4 MSTORE PUSH1 0x24 PUSH0 REVERT JUMPDEST PUSH0 PUSH2 0x8B5 DUP3 PUSH2 0x48C JUMP JUMPDEST SWAP2 POP PUSH2 0x8C0 DUP4 PUSH2 0x48C JUMP JUMPDEST SWAP3 POP DUP3 DUP3 ADD SWAP1 POP DUP1 DUP3 GT ISZERO PUSH2 0x8D8 JUMPI PUSH2 0x8D7 PUSH2 0x87E JUMP JUMPDEST JUMPDEST SWAP3 SWAP2 POP POP JUMP INVALID LOG2 PUSH5 0x6970667358 0x22 SLT KECCAK256 PUSH20 0x8E2F3E5440432E147295DE6CCC50CEEF9237CE61 COINBASE SWAP9 GAS DUP13 LOG2 PUSH29 0x85A759993464736F6C634300081A003300000000000000000000000000 "
				},
				"gasEstimates": {
					"creation": {
						"codeDepositCost": "464800",
						"executionCost": "29767",
						"totalCost": "494567"
					},
					"external": {
						"addPerson(string,string)": "infinite",
						"people(uint256)": "infinite",
						"peopleCount()": "2424"
					},
					"internal": {
						"increment()": "infinite"
					}
				},
				"methodIdentifiers": {
					"addPerson(string,string)": "22f5b58d",
					"people(uint256)": "9e7a13ad",
					"peopleCount()": "267c68e0"
				}
			},
			"storageLayout": {
				"storage": [
					{
						"astId": 4,
						"contract": "contracts/modifier.sol:ModifierImpl",
						"label": "peopleCount",
						"offset": 0,
						"slot": "0",
						"type": "t_uint256"
					},
					{
						"astId": 9,
						"contract": "contracts/modifier.sol:ModifierImpl",
						"label": "people",
						"offset": 0,
						"slot": "1",
						"type": "t_mapping(t_uint256,t_struct(person)38_storage)"
					},
					{
						"astId": 11,
						"contract": "contracts/modifier.sol:ModifierImpl",
						"label": "owner",
						"offset": 0,
						"slot": "2",
						"type": "t_address"
					}
				],
				"types": {
					"t_address": {
						"encoding": "inplace",
						"label": "address",
						"numberOfBytes": "20"
					},
					"t_mapping(t_uint256,t_struct(person)38_storage)": {
						"encoding": "mapping",
						"key": "t_uint256",
						"label": "mapping(uint256 => struct ModifierImpl.person)",
						"numberOfBytes": "32",
						"value": "t_struct(person)38_storage"
					},
					"t_string_storage": {
						"encoding": "bytes",
						"label": "string",
						"numberOfBytes": "32"
					},
					"t_struct(person)38_storage": {
						"encoding": "inplace",
						"label": "struct ModifierImpl.person",
						"members": [
							{
								"astId": 33,
								"contract": "contracts/modifier.sol:ModifierImpl",
								"label": "_id",
								"offset": 0,
								"slot": "0",
								"type": "t_uint256"
							},
							{
								"astId": 35,
								"contract": "contracts/modifier.sol:ModifierImpl",
								"label": "_fname",
								"offset": 0,
								"slot": "1",
								"type": "t_string_storage"
							},
							{
								"astId": 37,
								"contract": "contracts/modifier.sol:ModifierImpl",
								"label": "_lname",
								"offset": 0,
								"slot": "2",
								"type": "t_string_storage"
							}
						],
						"numberOfBytes": "96"
					},
					"t_uint256": {
						"encoding": "inplace",
						"label": "uint256",
						"numberOfBytes": "32"
					}
				}
			},
			"userdoc": {
				"kind": "user",
				"methods": {},
				"version": 1
			}
		}
	}
}