{
	"contracts/1_Storage.sol": {
		"Storage": {
			"abi": [
				{
					"inputs": [],
					"name": "returnNum1",
					"outputs": [
						{
							"internalType": "uint256",
							"name": "",
							"type": "uint256"
						},
						{
							"internalType": "uint256",
							"name": "",
							"type": "uint256"
						}
					],
					"stateMutability": "view",
					"type": "function"
				},
				{
					"inputs": [
						{
							"internalType": "uint256",
							"name": "number1",
							"type": "uint256"
						},
						{
							"internalType": "uint256",
							"name": "number2",
							"type": "uint256"
						}
					],
					"name": "store",
					"outputs": [],
					"stateMutability": "nonpayable",
					"type": "function"
				},
				{
					"inputs": [],
					"name": "swap",
					"outputs": [],
					"stateMutability": "nonpayable",
					"type": "function"
				}
			],
			"devdoc": {
				"custom:dev-run-script": "./scripts/deploy_with_ethers.ts",
				"details": "Store & retrieve value in a variable",
				"kind": "dev",
				"methods": {},
				"title": "Storage",
				"version": 1
			},
			"evm": {
				"assembly": "    /* \"contracts/1_Storage.sol\":199:585  contract Storage {... */\n  mstore(0x40, 0x80)\n  callvalue\n  dup1\n  iszero\n  tag_1\n  jumpi\n  0x00\n  dup1\n  revert\ntag_1:\n  pop\n  dataSize(sub_0)\n  dup1\n  dataOffset(sub_0)\n  0x00\n  codecopy\n  0x00\n  return\nstop\n\nsub_0: assembly {\n        /* \"contracts/1_Storage.sol\":199:585  contract Storage {... */\n      mstore(0x40, 0x80)\n      callvalue\n      dup1\n      iszero\n      tag_1\n      jumpi\n      0x00\n      dup1\n      revert\n    tag_1:\n      pop\n      jumpi(tag_2, lt(calldatasize, 0x04))\n      shr(0xe0, calldataload(0x00))\n      dup1\n      0x6ed28ed0\n      eq\n      tag_3\n      jumpi\n      dup1\n      0x8119c065\n      eq\n      tag_4\n      jumpi\n      dup1\n      0xacbcc563\n      eq\n      tag_5\n      jumpi\n    tag_2:\n      0x00\n      dup1\n      revert\n        /* \"contracts/1_Storage.sol\":259:363  function store(uint256 number1,uint256 number2)public{... */\n    tag_3:\n      tag_6\n      0x04\n      dup1\n      calldatasize\n      sub\n      dup2\n      add\n      swap1\n      tag_7\n      swap2\n      swap1\n      tag_8\n      jump\t// in\n    tag_7:\n      tag_9\n      jump\t// in\n    tag_6:\n      stop\n        /* \"contracts/1_Storage.sol\":375:480  function swap() public {... */\n    tag_4:\n      tag_10\n      tag_11\n      jump\t// in\n    tag_10:\n      stop\n        /* \"contracts/1_Storage.sol\":490:583  function returnNum1() public view returns(uint256,uint256){... */\n    tag_5:\n      tag_12\n      tag_13\n      jump\t// in\n    tag_12:\n      mload(0x40)\n      tag_14\n      swap3\n      swap2\n      swap1\n      tag_15\n      jump\t// in\n    tag_14:\n      mload(0x40)\n      dup1\n      swap2\n      sub\n      swap1\n      return\n        /* \"contracts/1_Storage.sol\":259:363  function store(uint256 number1,uint256 number2)public{... */\n    tag_9:\n        /* \"contracts/1_Storage.sol\":327:334  number1 */\n      dup2\n        /* \"contracts/1_Storage.sol\":322:326  num1 */\n      0x00\n        /* \"contracts/1_Storage.sol\":322:334  num1=number1 */\n      dup2\n      swap1\n      sstore\n      pop\n        /* \"contracts/1_Storage.sol\":349:356  number2 */\n      dup1\n        /* \"contracts/1_Storage.sol\":344:348  num2 */\n      0x01\n        /* \"contracts/1_Storage.sol\":344:356  num2=number2 */\n      dup2\n      swap1\n      sstore\n      pop\n        /* \"contracts/1_Storage.sol\":259:363  function store(uint256 number1,uint256 number2)public{... */\n      pop\n      pop\n      jump\t// out\n        /* \"contracts/1_Storage.sol\":375:480  function swap() public {... */\n    tag_11:\n        /* \"contracts/1_Storage.sol\":420:424  num2 */\n      sload(0x01)\n        /* \"contracts/1_Storage.sol\":415:419  num1 */\n      sload(0x00)\n        /* \"contracts/1_Storage.sol\":415:424  num1^num2 */\n      xor\n        /* \"contracts/1_Storage.sol\":408:412  num1 */\n      0x00\n        /* \"contracts/1_Storage.sol\":408:424  num1 = num1^num2 */\n      dup2\n      swap1\n      sstore\n      pop\n        /* \"contracts/1_Storage.sol\":444:448  num2 */\n      sload(0x01)\n        /* \"contracts/1_Storage.sol\":439:443  num1 */\n      sload(0x00)\n        /* \"contracts/1_Storage.sol\":439:448  num1^num2 */\n      xor\n        /* \"contracts/1_Storage.sol\":434:438  num2 */\n      0x01\n        /* \"contracts/1_Storage.sol\":434:448  num2=num1^num2 */\n      dup2\n      swap1\n      sstore\n      pop\n        /* \"contracts/1_Storage.sol\":469:473  num2 */\n      sload(0x01)\n        /* \"contracts/1_Storage.sol\":464:468  num1 */\n      sload(0x00)\n        /* \"contracts/1_Storage.sol\":464:473  num1^num2 */\n      xor\n        /* \"contracts/1_Storage.sol\":458:462  num1 */\n      0x00\n        /* \"contracts/1_Storage.sol\":458:473  num1 =num1^num2 */\n      dup2\n      swap1\n      sstore\n      pop\n        /* \"contracts/1_Storage.sol\":375:480  function swap() public {... */\n      jump\t// out\n        /* \"contracts/1_Storage.sol\":490:583  function returnNum1() public view returns(uint256,uint256){... */\n    tag_13:\n        /* \"contracts/1_Storage.sol\":532:539  uint256 */\n      0x00\n        /* \"contracts/1_Storage.sol\":540:547  uint256 */\n      dup1\n        /* \"contracts/1_Storage.sol\":566:570  num1 */\n      sload(0x00)\n        /* \"contracts/1_Storage.sol\":571:575  num2 */\n      sload(0x01)\n        /* \"contracts/1_Storage.sol\":558:576  return (num1,num2) */\n      swap2\n      pop\n      swap2\n      pop\n        /* \"contracts/1_Storage.sol\":490:583  function returnNum1() public view returns(uint256,uint256){... */\n      swap1\n      swap2\n      jump\t// out\n        /* \"#utility.yul\":88:205   */\n    tag_20:\n        /* \"#utility.yul\":197:198   */\n      0x00\n        /* \"#utility.yul\":194:195   */\n      dup1\n        /* \"#utility.yul\":187:199   */\n      revert\n        /* \"#utility.yul\":334:411   */\n    tag_22:\n        /* \"#utility.yul\":371:378   */\n      0x00\n        /* \"#utility.yul\":400:405   */\n      dup2\n        /* \"#utility.yul\":389:405   */\n      swap1\n      pop\n        /* \"#utility.yul\":334:411   */\n      swap2\n      swap1\n      pop\n      jump\t// out\n        /* \"#utility.yul\":417:539   */\n    tag_23:\n        /* \"#utility.yul\":490:514   */\n      tag_32\n        /* \"#utility.yul\":508:513   */\n      dup2\n        /* \"#utility.yul\":490:514   */\n      tag_22\n      jump\t// in\n    tag_32:\n        /* \"#utility.yul\":483:488   */\n      dup2\n        /* \"#utility.yul\":480:515   */\n      eq\n        /* \"#utility.yul\":470:533   */\n      tag_33\n      jumpi\n        /* \"#utility.yul\":529:530   */\n      0x00\n        /* \"#utility.yul\":526:527   */\n      dup1\n        /* \"#utility.yul\":519:531   */\n      revert\n        /* \"#utility.yul\":470:533   */\n    tag_33:\n        /* \"#utility.yul\":417:539   */\n      pop\n      jump\t// out\n        /* \"#utility.yul\":545:684   */\n    tag_24:\n        /* \"#utility.yul\":591:596   */\n      0x00\n        /* \"#utility.yul\":629:635   */\n      dup2\n        /* \"#utility.yul\":616:636   */\n      calldataload\n        /* \"#utility.yul\":607:636   */\n      swap1\n      pop\n        /* \"#utility.yul\":645:678   */\n      tag_35\n        /* \"#utility.yul\":672:677   */\n      dup2\n        /* \"#utility.yul\":645:678   */\n      tag_23\n      jump\t// in\n    tag_35:\n        /* \"#utility.yul\":545:684   */\n      swap3\n      swap2\n      pop\n      pop\n      jump\t// out\n        /* \"#utility.yul\":690:1164   */\n    tag_8:\n        /* \"#utility.yul\":758:764   */\n      0x00\n        /* \"#utility.yul\":766:772   */\n      dup1\n        /* \"#utility.yul\":815:817   */\n      0x40\n        /* \"#utility.yul\":803:812   */\n      dup4\n        /* \"#utility.yul\":794:801   */\n      dup6\n        /* \"#utility.yul\":790:813   */\n      sub\n        /* \"#utility.yul\":786:818   */\n      slt\n        /* \"#utility.yul\":783:902   */\n      iszero\n      tag_37\n      jumpi\n        /* \"#utility.yul\":821:900   */\n      tag_38\n      tag_20\n      jump\t// in\n    tag_38:\n        /* \"#utility.yul\":783:902   */\n    tag_37:\n        /* \"#utility.yul\":941:942   */\n      0x00\n        /* \"#utility.yul\":966:1019   */\n      tag_39\n        /* \"#utility.yul\":1011:1018   */\n      dup6\n        /* \"#utility.yul\":1002:1008   */\n      dup3\n        /* \"#utility.yul\":991:1000   */\n      dup7\n        /* \"#utility.yul\":987:1009   */\n      add\n        /* \"#utility.yul\":966:1019   */\n      tag_24\n      jump\t// in\n    tag_39:\n        /* \"#utility.yul\":956:1019   */\n      swap3\n      pop\n        /* \"#utility.yul\":912:1029   */\n      pop\n        /* \"#utility.yul\":1068:1070   */\n      0x20\n        /* \"#utility.yul\":1094:1147   */\n      tag_40\n        /* \"#utility.yul\":1139:1146   */\n      dup6\n        /* \"#utility.yul\":1130:1136   */\n      dup3\n        /* \"#utility.yul\":1119:1128   */\n      dup7\n        /* \"#utility.yul\":1115:1137   */\n      add\n        /* \"#utility.yul\":1094:1147   */\n      tag_24\n      jump\t// in\n    tag_40:\n        /* \"#utility.yul\":1084:1147   */\n      swap2\n      pop\n        /* \"#utility.yul\":1039:1157   */\n      pop\n        /* \"#utility.yul\":690:1164   */\n      swap3\n      pop\n      swap3\n      swap1\n      pop\n      jump\t// out\n        /* \"#utility.yul\":1170:1288   */\n    tag_25:\n        /* \"#utility.yul\":1257:1281   */\n      tag_42\n        /* \"#utility.yul\":1275:1280   */\n      dup2\n        /* \"#utility.yul\":1257:1281   */\n      tag_22\n      jump\t// in\n    tag_42:\n        /* \"#utility.yul\":1252:1255   */\n      dup3\n        /* \"#utility.yul\":1245:1282   */\n      mstore\n        /* \"#utility.yul\":1170:1288   */\n      pop\n      pop\n      jump\t// out\n        /* \"#utility.yul\":1294:1626   */\n    tag_15:\n        /* \"#utility.yul\":1415:1419   */\n      0x00\n        /* \"#utility.yul\":1453:1455   */\n      0x40\n        /* \"#utility.yul\":1442:1451   */\n      dup3\n        /* \"#utility.yul\":1438:1456   */\n      add\n        /* \"#utility.yul\":1430:1456   */\n      swap1\n      pop\n        /* \"#utility.yul\":1466:1537   */\n      tag_44\n        /* \"#utility.yul\":1534:1535   */\n      0x00\n        /* \"#utility.yul\":1523:1532   */\n      dup4\n        /* \"#utility.yul\":1519:1536   */\n      add\n        /* \"#utility.yul\":1510:1516   */\n      dup6\n        /* \"#utility.yul\":1466:1537   */\n      tag_25\n      jump\t// in\n    tag_44:\n        /* \"#utility.yul\":1547:1619   */\n      tag_45\n        /* \"#utility.yul\":1615:1617   */\n      0x20\n        /* \"#utility.yul\":1604:1613   */\n      dup4\n        /* \"#utility.yul\":1600:1618   */\n      add\n        /* \"#utility.yul\":1591:1597   */\n      dup5\n        /* \"#utility.yul\":1547:1619   */\n      tag_25\n      jump\t// in\n    tag_45:\n        /* \"#utility.yul\":1294:1626   */\n      swap4\n      swap3\n      pop\n      pop\n      pop\n      jump\t// out\n\n    auxdata: 0xa26469706673582212207cf950f824399471538fc9032de59f1a583e4a1fbb82f42ddf6041e8cd84615164736f6c634300081a0033\n}\n",
				"bytecode": {
					"linkReferences": {},
					"object": "6080604052348015600e575f80fd5b506101ad8061001c5f395ff3fe608060405234801561000f575f80fd5b506004361061003f575f3560e01c80636ed28ed0146100435780638119c0651461005f578063acbcc56314610069575b5f80fd5b61005d60048036038101906100589190610103565b610088565b005b610067610099565b005b6100716100bd565b60405161007f929190610150565b60405180910390f35b815f81905550806001819055505050565b6001545f54185f819055506001545f54186001819055506001545f54185f81905550565b5f805f54600154915091509091565b5f80fd5b5f819050919050565b6100e2816100d0565b81146100ec575f80fd5b50565b5f813590506100fd816100d9565b92915050565b5f8060408385031215610119576101186100cc565b5b5f610126858286016100ef565b9250506020610137858286016100ef565b9150509250929050565b61014a816100d0565b82525050565b5f6040820190506101635f830185610141565b6101706020830184610141565b939250505056fea26469706673582212207cf950f824399471538fc9032de59f1a583e4a1fbb82f42ddf6041e8cd84615164736f6c634300081a0033",
					"opcodes": "PUSH1 0x80 PUSH1 0x40 MSTORE CALLVALUE DUP1 ISZERO PUSH1 0xE JUMPI PUSH0 DUP1 REVERT JUMPDEST POP PUSH2 0x1AD DUP1 PUSH2 0x1C PUSH0 CODECOPY PUSH0 RETURN INVALID PUSH1 0x80 PUSH1 0x40 MSTORE CALLVALUE DUP1 ISZERO PUSH2 0xF JUMPI PUSH0 DUP1 REVERT JUMPDEST POP PUSH1 0x4 CALLDATASIZE LT PUSH2 0x3F JUMPI PUSH0 CALLDATALOAD PUSH1 0xE0 SHR DUP1 PUSH4 0x6ED28ED0 EQ PUSH2 0x43 JUMPI DUP1 PUSH4 0x8119C065 EQ PUSH2 0x5F JUMPI DUP1 PUSH4 0xACBCC563 EQ PUSH2 0x69 JUMPI JUMPDEST PUSH0 DUP1 REVERT JUMPDEST PUSH2 0x5D PUSH1 0x4 DUP1 CALLDATASIZE SUB DUP2 ADD SWAP1 PUSH2 0x58 SWAP2 SWAP1 PUSH2 0x103 JUMP JUMPDEST PUSH2 0x88 JUMP JUMPDEST STOP JUMPDEST PUSH2 0x67 PUSH2 0x99 JUMP JUMPDEST STOP JUMPDEST PUSH2 0x71 PUSH2 0xBD JUMP JUMPDEST PUSH1 0x40 MLOAD PUSH2 0x7F SWAP3 SWAP2 SWAP1 PUSH2 0x150 JUMP JUMPDEST PUSH1 0x40 MLOAD DUP1 SWAP2 SUB SWAP1 RETURN JUMPDEST DUP2 PUSH0 DUP2 SWAP1 SSTORE POP DUP1 PUSH1 0x1 DUP2 SWAP1 SSTORE POP POP POP JUMP JUMPDEST PUSH1 0x1 SLOAD PUSH0 SLOAD XOR PUSH0 DUP2 SWAP1 SSTORE POP PUSH1 0x1 SLOAD PUSH0 SLOAD XOR PUSH1 0x1 DUP2 SWAP1 SSTORE POP PUSH1 0x1 SLOAD PUSH0 SLOAD XOR PUSH0 DUP2 SWAP1 SSTORE POP JUMP JUMPDEST PUSH0 DUP1 PUSH0 SLOAD PUSH1 0x1 SLOAD SWAP2 POP SWAP2 POP SWAP1 SWAP2 JUMP JUMPDEST PUSH0 DUP1 REVERT JUMPDEST PUSH0 DUP2 SWAP1 POP SWAP2 SWAP1 POP JUMP JUMPDEST PUSH2 0xE2 DUP2 PUSH2 0xD0 JUMP JUMPDEST DUP2 EQ PUSH2 0xEC JUMPI PUSH0 DUP1 REVERT JUMPDEST POP JUMP JUMPDEST PUSH0 DUP2 CALLDATALOAD SWAP1 POP PUSH2 0xFD DUP2 PUSH2 0xD9 JUMP JUMPDEST SWAP3 SWAP2 POP POP JUMP JUMPDEST PUSH0 DUP1 PUSH1 0x40 DUP4 DUP6 SUB SLT ISZERO PUSH2 0x119 JUMPI PUSH2 0x118 PUSH2 0xCC JUMP JUMPDEST JUMPDEST PUSH0 PUSH2 0x126 DUP6 DUP3 DUP7 ADD PUSH2 0xEF JUMP JUMPDEST SWAP3 POP POP PUSH1 0x20 PUSH2 0x137 DUP6 DUP3 DUP7 ADD PUSH2 0xEF JUMP JUMPDEST SWAP2 POP POP SWAP3 POP SWAP3 SWAP1 POP JUMP JUMPDEST PUSH2 0x14A DUP2 PUSH2 0xD0 JUMP JUMPDEST DUP3 MSTORE POP POP JUMP JUMPDEST PUSH0 PUSH1 0x40 DUP3 ADD SWAP1 POP PUSH2 0x163 PUSH0 DUP4 ADD DUP6 PUSH2 0x141 JUMP JUMPDEST PUSH2 0x170 PUSH1 0x20 DUP4 ADD DUP5 PUSH2 0x141 JUMP JUMPDEST SWAP4 SWAP3 POP POP POP JUMP INVALID LOG2 PUSH5 0x6970667358 0x22 SLT KECCAK256 PUSH29 0xF950F824399471538FC9032DE59F1A583E4A1FBB82F42DDF6041E8CD84 PUSH2 0x5164 PUSH20 0x6F6C634300081A00330000000000000000000000 "
				},
				"gasEstimates": {
					"creation": {
						"codeDepositCost": "85800",
						"executionCost": "133",
						"totalCost": "85933"
					},
					"external": {
						"returnNum1()": "infinite",
						"store(uint256,uint256)": "infinite",
						"swap()": "79098"
					}
				},
				"methodIdentifiers": {
					"returnNum1()": "acbcc563",
					"store(uint256,uint256)": "6ed28ed0",
					"swap()": "8119c065"
				}
			},
			"storageLayout": {
				"storage": [
					{
						"astId": 4,
						"contract": "contracts/1_Storage.sol:Storage",
						"label": "num1",
						"offset": 0,
						"slot": "0",
						"type": "t_uint256"
					},
					{
						"astId": 6,
						"contract": "contracts/1_Storage.sol:Storage",
						"label": "num2",
						"offset": 0,
						"slot": "1",
						"type": "t_uint256"
					}
				],
				"types": {
					"t_uint256": {
						"encoding": "inplace",
						"label": "uint256",
						"numberOfBytes": "32"
					}
				}
			},
			"userdoc": {
				"kind": "user",
				"methods": {},
				"version": 1
			}
		}
	}
}