{
	"data": {
		"bytecode": {
			"linkReferences": {},
			"object": "6080604052348015600e575f80fd5b5060055f81905550600a600181905550600f6002819055506102c1806100335f395ff3fe608060405234801561000f575f80fd5b5060043610610034575f3560e01c806375ad9d1714610038578063a531f36a14610056575b5f80fd5b610040610074565b60405161004d919061013b565b60405180910390f35b61005e610111565b60405161006b919061013b565b60405180910390f35b5f8060405161008290610117565b604051809103905ff08015801561009b573d5f803e3d5ffd5b5090508073ffffffffffffffffffffffffffffffffffffffff1663a531f36a6040518163ffffffff1660e01b8152600401602060405180830381865afa1580156100e7573d5f803e3d5ffd5b505050506040513d601f19601f8201168201806040525081019061010b9190610182565b91505090565b60025481565b60de806101ae83390190565b5f819050919050565b61013581610123565b82525050565b5f60208201905061014e5f83018461012c565b92915050565b5f80fd5b61016181610123565b811461016b575f80fd5b50565b5f8151905061017c81610158565b92915050565b5f6020828403121561019757610196610154565b5b5f6101a48482850161016e565b9150509291505056fe6080604052348015600e575f80fd5b5060055f81905550600a600181905550600f60028190555060ad8060315f395ff3fe6080604052348015600e575f80fd5b50600436106026575f3560e01c8063a531f36a14602a575b5f80fd5b60306044565b604051603b91906060565b60405180910390f35b60025481565b5f819050919050565b605a81604a565b82525050565b5f60208201905060715f8301846053565b9291505056fea2646970667358221220db438bef3886bef35ea3c75fab8df6f133f6c558820593c8c172dc61eb1380c064736f6c634300081a0033a26469706673582212206fc41f4b835cef08564b0d61b1dcbce526976e3869e939bba765258eee92087b64736f6c634300081a0033",
			"opcodes": "PUSH1 0x80 PUSH1 0x40 MSTORE CALLVALUE DUP1 ISZERO PUSH1 0xE JUMPI PUSH0 DUP1 REVERT JUMPDEST POP PUSH1 0x5 PUSH0 DUP2 SWAP1 SSTORE POP PUSH1 0xA PUSH1 0x1 DUP2 SWAP1 SSTORE POP PUSH1 0xF PUSH1 0x2 DUP2 SWAP1 SSTORE POP PUSH2 0x2C1 DUP1 PUSH2 0x33 PUSH0 CODECOPY PUSH0 RETURN INVALID PUSH1 0x80 PUSH1 0x40 MSTORE CALLVALUE DUP1 ISZERO PUSH2 0xF JUMPI PUSH0 DUP1 REVERT JUMPDEST POP PUSH1 0x4 CALLDATASIZE LT PUSH2 0x34 JUMPI PUSH0 CALLDATALOAD PUSH1 0xE0 SHR DUP1 PUSH4 0x75AD9D17 EQ PUSH2 0x38 JUMPI DUP1 PUSH4 0xA531F36A EQ PUSH2 0x56 JUMPI JUMPDEST PUSH0 DUP1 REVERT JUMPDEST PUSH2 0x40 PUSH2 0x74 JUMP JUMPDEST PUSH1 0x40 MLOAD PUSH2 0x4D SWAP2 SWAP1 PUSH2 0x13B JUMP JUMPDEST PUSH1 0x40 MLOAD DUP1 SWAP2 SUB SWAP1 RETURN JUMPDEST PUSH2 0x5E PUSH2 0x111 JUMP JUMPDEST PUSH1 0x40 MLOAD PUSH2 0x6B SWAP2 SWAP1 PUSH2 0x13B JUMP JUMPDEST PUSH1 0x40 MLOAD DUP1 SWAP2 SUB SWAP1 RETURN JUMPDEST PUSH0 DUP1 PUSH1 0x40 MLOAD PUSH2 0x82 SWAP1 PUSH2 0x117 JUMP JUMPDEST PUSH1 0x40 MLOAD DUP1 SWAP2 SUB SWAP1 PUSH0 CREATE DUP1 ISZERO DUP1 ISZERO PUSH2 0x9B JUMPI RETURNDATASIZE PUSH0 DUP1 RETURNDATACOPY RETURNDATASIZE PUSH0 REVERT JUMPDEST POP SWAP1 POP DUP1 PUSH20 0xFFFFFFFFFFFFFFFFFFFFFFFFFFFFFFFFFFFFFFFF AND PUSH4 0xA531F36A PUSH1 0x40 MLOAD DUP2 PUSH4 0xFFFFFFFF AND PUSH1 0xE0 SHL DUP2 MSTORE PUSH1 0x4 ADD PUSH1 0x20 PUSH1 0x40 MLOAD DUP1 DUP4 SUB DUP2 DUP7 GAS STATICCALL ISZERO DUP1 ISZERO PUSH2 0xE7 JUMPI RETURNDATASIZE PUSH0 DUP1 RETURNDATACOPY RETURNDATASIZE PUSH0 REVERT JUMPDEST POP POP POP POP PUSH1 0x40 MLOAD RETURNDATASIZE PUSH1 0x1F NOT PUSH1 0x1F DUP3 ADD AND DUP3 ADD DUP1 PUSH1 0x40 MSTORE POP DUP2 ADD SWAP1 PUSH2 0x10B SWAP2 SWAP1 PUSH2 0x182 JUMP JUMPDEST SWAP2 POP POP SWAP1 JUMP JUMPDEST PUSH1 0x2 SLOAD DUP2 JUMP JUMPDEST PUSH1 0xDE DUP1 PUSH2 0x1AE DUP4 CODECOPY ADD SWAP1 JUMP JUMPDEST PUSH0 DUP2 SWAP1 POP SWAP2 SWAP1 POP JUMP JUMPDEST PUSH2 0x135 DUP2 PUSH2 0x123 JUMP JUMPDEST DUP3 MSTORE POP POP JUMP JUMPDEST PUSH0 PUSH1 0x20 DUP3 ADD SWAP1 POP PUSH2 0x14E PUSH0 DUP4 ADD DUP5 PUSH2 0x12C JUMP JUMPDEST SWAP3 SWAP2 POP POP JUMP JUMPDEST PUSH0 DUP1 REVERT JUMPDEST PUSH2 0x161 DUP2 PUSH2 0x123 JUMP JUMPDEST DUP2 EQ PUSH2 0x16B JUMPI PUSH0 DUP1 REVERT JUMPDEST POP JUMP JUMPDEST PUSH0 DUP2 MLOAD SWAP1 POP PUSH2 0x17C DUP2 PUSH2 0x158 JUMP JUMPDEST SWAP3 SWAP2 POP POP JUMP JUMPDEST PUSH0 PUSH1 0x20 DUP3 DUP5 SUB SLT ISZERO PUSH2 0x197 JUMPI PUSH2 0x196 PUSH2 0x154 JUMP JUMPDEST JUMPDEST PUSH0 PUSH2 0x1A4 DUP5 DUP3 DUP6 ADD PUSH2 0x16E JUMP JUMPDEST SWAP2 POP POP SWAP3 SWAP2 POP POP JUMP INVALID PUSH1 0x80 PUSH1 0x40 MSTORE CALLVALUE DUP1 ISZERO PUSH1 0xE JUMPI PUSH0 DUP1 REVERT JUMPDEST POP PUSH1 0x5 PUSH0 DUP2 SWAP1 SSTORE POP PUSH1 0xA PUSH1 0x1 DUP2 SWAP1 SSTORE POP PUSH1 0xF PUSH1 0x2 DUP2 SWAP1 SSTORE POP PUSH1 0xAD DUP1 PUSH1 0x31 PUSH0 CODECOPY PUSH0 RETURN INVALID PUSH1 0x80 PUSH1 0x40 MSTORE CALLVALUE DUP1 ISZERO PUSH1 0xE JUMPI PUSH0 DUP1 REVERT JUMPDEST POP PUSH1 0x4 CALLDATASIZE LT PUSH1 0x26 JUMPI PUSH0 CALLDATALOAD PUSH1 0xE0 SHR DUP1 PUSH4 0xA531F36A EQ PUSH1 0x2A JUMPI JUMPDEST PUSH0 DUP1 REVERT JUMPDEST PUSH1 0x30 PUSH1 0x44 JUMP JUMPDEST PUSH1 0x40 MLOAD PUSH1 0x3B SWAP2 SWAP1 PUSH1 0x60 JUMP JUMPDEST PUSH1 0x40 MLOAD DUP1 SWAP2 SUB SWAP1 RETURN JUMPDEST PUSH1 0x2 SLOAD DUP2 JUMP JUMPDEST PUSH0 DUP2 SWAP1 POP SWAP2 SWAP1 POP JUMP JUMPDEST PUSH1 0x5A DUP2 PUSH1 0x4A JUMP JUMPDEST DUP3 MSTORE POP POP JUMP JUMPDEST PUSH0 PUSH1 0x20 DUP3 ADD SWAP1 POP PUSH1 0x71 PUSH0 DUP4 ADD DUP5 PUSH1 0x53 JUMP JUMPDEST SWAP3 SWAP2 POP POP JUMP INVALID LOG2 PUSH5 0x6970667358 0x22 SLT KECCAK256 0xDB NUMBER DUP12 0xEF CODESIZE DUP7 0xBE RETURN MCOPY LOG3 0xC7 PUSH0 0xAB DUP14 0xF6 CALL CALLER 0xF6 0xC5 PC DUP3 SDIV SWAP4 0xC8 0xC1 PUSH19 0xDC61EB1380C064736F6C634300081A0033A264 PUSH10 0x706673582212206FC41F 0x4B DUP4 TLOAD 0xEF ADDMOD JUMP 0x4B 0xD PUSH2 0xB1DC 0xBC 0xE5 0x26 SWAP8 PUSH15 0x3869E939BBA765258EEE92087B6473 PUSH16 0x6C634300081A00330000000000000000 "
		},
		"gasEstimates": {
			"creation": {
				"codeDepositCost": "141000",
				"executionCost": "66529",
				"totalCost": "207529"
			},
			"external": {
				"getExternalNumber()": "infinite",
				"num3()": "2425"
			}
		},
		"methodIdentifiers": {
			"getExternalNumber()": "75ad9d17",
			"num3()": "a531f36a"
		}
	},
	"abi": [
		{
			"inputs": [],
			"name": "getExternalNumber",
			"outputs": [
				{
					"internalType": "uint256",
					"name": "",
					"type": "uint256"
				}
			],
			"stateMutability": "nonpayable",
			"type": "function"
		},
		{
			"inputs": [],
			"name": "num3",
			"outputs": [
				{
					"internalType": "uint256",
					"name": "",
					"type": "uint256"
				}
			],
			"stateMutability": "view",
			"type": "function"
		}
	]
}