{
	"data": {
		"bytecode": {
			"linkReferences": {},
			"object": "6080604052348015600e575f80fd5b5061046b8061001c5f395ff3fe608060405234801561000f575f80fd5b506004361061003f575f3560e01c80631beb7d7e14610043578063209652551461004d578063862b66831461006b575b5f80fd5b61004b610087565b005b6100556100d1565b6040516100629190610113565b60405180910390f35b6100856004803603810190610080919061015a565b6100da565b005b60025460045461009791906101eb565b6004546001546100a79190610259565b60016100b39190610289565b6100bd91906103eb565b5f546100c991906101eb565b600381905550565b5f600354905090565b835f8190555082600181905550816002819055508060048190555050505050565b5f819050919050565b61010d816100fb565b82525050565b5f6020820190506101265f830184610104565b92915050565b5f80fd5b610139816100fb565b8114610143575f80fd5b50565b5f8135905061015481610130565b92915050565b5f805f80608085870312156101725761017161012c565b5b5f61017f87828801610146565b945050602061019087828801610146565b93505060406101a187828801610146565b92505060606101b287828801610146565b91505092959194509250565b7f4e487b71000000000000000000000000000000000000000000000000000000005f52601160045260245ffd5b5f6101f5826100fb565b9150610200836100fb565b925082820261020e816100fb565b91508282048414831517610225576102246101be565b5b5092915050565b7f4e487b71000000000000000000000000000000000000000000000000000000005f52601260045260245ffd5b5f610263826100fb565b915061026e836100fb565b92508261027e5761027d61022c565b5b828204905092915050565b5f610293826100fb565b915061029e836100fb565b92508282019050808211156102b6576102b56101be565b5b92915050565b5f8160011c9050919050565b5f808291508390505b6001851115610311578086048111156102ed576102ec6101be565b5b60018516156102fc5780820291505b808102905061030a856102bc565b94506102d1565b94509492505050565b5f8261032957600190506103e4565b81610336575f90506103e4565b816001811461034c576002811461035657610385565b60019150506103e4565b60ff841115610368576103676101be565b5b8360020a91508482111561037f5761037e6101be565b5b506103e4565b5060208310610133831016604e8410600b84101617156103ba5782820a9050838111156103b5576103b46101be565b5b6103e4565b6103c784848460016102c8565b925090508184048111156103de576103dd6101be565b5b81810290505b9392505050565b5f6103f5826100fb565b9150610400836100fb565b925061042d7fffffffffffffffffffffffffffffffffffffffffffffffffffffffffffffffff848461031a565b90509291505056fea26469706673582212203e0db0617f2f2e1dc288178553de0c0f63d29734180e9d6995124b60894e9c8964736f6c634300081a0033",
			"opcodes": "PUSH1 0x80 PUSH1 0x40 MSTORE CALLVALUE DUP1 ISZERO PUSH1 0xE JUMPI PUSH0 DUP1 REVERT JUMPDEST POP PUSH2 0x46B DUP1 PUSH2 0x1C PUSH0 CODECOPY PUSH0 RETURN INVALID PUSH1 0x80 PUSH1 0x40 MSTORE CALLVALUE DUP1 ISZERO PUSH2 0xF JUMPI PUSH0 DUP1 REVERT JUMPDEST POP PUSH1 0x4 CALLDATASIZE LT PUSH2 0x3F JUMPI PUSH0 CALLDATALOAD PUSH1 0xE0 SHR DUP1 PUSH4 0x1BEB7D7E EQ PUSH2 0x43 JUMPI DUP1 PUSH4 0x20965255 EQ PUSH2 0x4D JUMPI DUP1 PUSH4 0x862B6683 EQ PUSH2 0x6B JUMPI JUMPDEST PUSH0 DUP1 REVERT JUMPDEST PUSH2 0x4B PUSH2 0x87 JUMP JUMPDEST STOP JUMPDEST PUSH2 0x55 PUSH2 0xD1 JUMP JUMPDEST PUSH1 0x40 MLOAD PUSH2 0x62 SWAP2 SWAP1 PUSH2 0x113 JUMP JUMPDEST PUSH1 0x40 MLOAD DUP1 SWAP2 SUB SWAP1 RETURN JUMPDEST PUSH2 0x85 PUSH1 0x4 DUP1 CALLDATASIZE SUB DUP2 ADD SWAP1 PUSH2 0x80 SWAP2 SWAP1 PUSH2 0x15A JUMP JUMPDEST PUSH2 0xDA JUMP JUMPDEST STOP JUMPDEST PUSH1 0x2 SLOAD PUSH1 0x4 SLOAD PUSH2 0x97 SWAP2 SWAP1 PUSH2 0x1EB JUMP JUMPDEST PUSH1 0x4 SLOAD PUSH1 0x1 SLOAD PUSH2 0xA7 SWAP2 SWAP1 PUSH2 0x259 JUMP JUMPDEST PUSH1 0x1 PUSH2 0xB3 SWAP2 SWAP1 PUSH2 0x289 JUMP JUMPDEST PUSH2 0xBD SWAP2 SWAP1 PUSH2 0x3EB JUMP JUMPDEST PUSH0 SLOAD PUSH2 0xC9 SWAP2 SWAP1 PUSH2 0x1EB JUMP JUMPDEST PUSH1 0x3 DUP2 SWAP1 SSTORE POP JUMP JUMPDEST PUSH0 PUSH1 0x3 SLOAD SWAP1 POP SWAP1 JUMP JUMPDEST DUP4 PUSH0 DUP2 SWAP1 SSTORE POP DUP3 PUSH1 0x1 DUP2 SWAP1 SSTORE POP DUP2 PUSH1 0x2 DUP2 SWAP1 SSTORE POP DUP1 PUSH1 0x4 DUP2 SWAP1 SSTORE POP POP POP POP POP JUMP JUMPDEST PUSH0 DUP2 SWAP1 POP SWAP2 SWAP1 POP JUMP JUMPDEST PUSH2 0x10D DUP2 PUSH2 0xFB JUMP JUMPDEST DUP3 MSTORE POP POP JUMP JUMPDEST PUSH0 PUSH1 0x20 DUP3 ADD SWAP1 POP PUSH2 0x126 PUSH0 DUP4 ADD DUP5 PUSH2 0x104 JUMP JUMPDEST SWAP3 SWAP2 POP POP JUMP JUMPDEST PUSH0 DUP1 REVERT JUMPDEST PUSH2 0x139 DUP2 PUSH2 0xFB JUMP JUMPDEST DUP2 EQ PUSH2 0x143 JUMPI PUSH0 DUP1 REVERT JUMPDEST POP JUMP JUMPDEST PUSH0 DUP2 CALLDATALOAD SWAP1 POP PUSH2 0x154 DUP2 PUSH2 0x130 JUMP JUMPDEST SWAP3 SWAP2 POP POP JUMP JUMPDEST PUSH0 DUP1 PUSH0 DUP1 PUSH1 0x80 DUP6 DUP8 SUB SLT ISZERO PUSH2 0x172 JUMPI PUSH2 0x171 PUSH2 0x12C JUMP JUMPDEST JUMPDEST PUSH0 PUSH2 0x17F DUP8 DUP3 DUP9 ADD PUSH2 0x146 JUMP JUMPDEST SWAP5 POP POP PUSH1 0x20 PUSH2 0x190 DUP8 DUP3 DUP9 ADD PUSH2 0x146 JUMP JUMPDEST SWAP4 POP POP PUSH1 0x40 PUSH2 0x1A1 DUP8 DUP3 DUP9 ADD PUSH2 0x146 JUMP JUMPDEST SWAP3 POP POP PUSH1 0x60 PUSH2 0x1B2 DUP8 DUP3 DUP9 ADD PUSH2 0x146 JUMP JUMPDEST SWAP2 POP POP SWAP3 SWAP6 SWAP2 SWAP5 POP SWAP3 POP JUMP JUMPDEST PUSH32 0x4E487B7100000000000000000000000000000000000000000000000000000000 PUSH0 MSTORE PUSH1 0x11 PUSH1 0x4 MSTORE PUSH1 0x24 PUSH0 REVERT JUMPDEST PUSH0 PUSH2 0x1F5 DUP3 PUSH2 0xFB JUMP JUMPDEST SWAP2 POP PUSH2 0x200 DUP4 PUSH2 0xFB JUMP JUMPDEST SWAP3 POP DUP3 DUP3 MUL PUSH2 0x20E DUP2 PUSH2 0xFB JUMP JUMPDEST SWAP2 POP DUP3 DUP3 DIV DUP5 EQ DUP4 ISZERO OR PUSH2 0x225 JUMPI PUSH2 0x224 PUSH2 0x1BE JUMP JUMPDEST JUMPDEST POP SWAP3 SWAP2 POP POP JUMP JUMPDEST PUSH32 0x4E487B7100000000000000000000000000000000000000000000000000000000 PUSH0 MSTORE PUSH1 0x12 PUSH1 0x4 MSTORE PUSH1 0x24 PUSH0 REVERT JUMPDEST PUSH0 PUSH2 0x263 DUP3 PUSH2 0xFB JUMP JUMPDEST SWAP2 POP PUSH2 0x26E DUP4 PUSH2 0xFB JUMP JUMPDEST SWAP3 POP DUP3 PUSH2 0x27E JUMPI PUSH2 0x27D PUSH2 0x22C JUMP JUMPDEST JUMPDEST DUP3 DUP3 DIV SWAP1 POP SWAP3 SWAP2 POP POP JUMP JUMPDEST PUSH0 PUSH2 0x293 DUP3 PUSH2 0xFB JUMP JUMPDEST SWAP2 POP PUSH2 0x29E DUP4 PUSH2 0xFB JUMP JUMPDEST SWAP3 POP DUP3 DUP3 ADD SWAP1 POP DUP1 DUP3 GT ISZERO PUSH2 0x2B6 JUMPI PUSH2 0x2B5 PUSH2 0x1BE JUMP JUMPDEST JUMPDEST SWAP3 SWAP2 POP POP JUMP JUMPDEST PUSH0 DUP2 PUSH1 0x1 SHR SWAP1 POP SWAP2 SWAP1 POP JUMP JUMPDEST PUSH0 DUP1 DUP3 SWAP2 POP DUP4 SWAP1 POP JUMPDEST PUSH1 0x1 DUP6 GT ISZERO PUSH2 0x311 JUMPI DUP1 DUP7 DIV DUP2 GT ISZERO PUSH2 0x2ED JUMPI PUSH2 0x2EC PUSH2 0x1BE JUMP JUMPDEST JUMPDEST PUSH1 0x1 DUP6 AND ISZERO PUSH2 0x2FC JUMPI DUP1 DUP3 MUL SWAP2 POP JUMPDEST DUP1 DUP2 MUL SWAP1 POP PUSH2 0x30A DUP6 PUSH2 0x2BC JUMP JUMPDEST SWAP5 POP PUSH2 0x2D1 JUMP JUMPDEST SWAP5 POP SWAP5 SWAP3 POP POP POP JUMP JUMPDEST PUSH0 DUP3 PUSH2 0x329 JUMPI PUSH1 0x1 SWAP1 POP PUSH2 0x3E4 JUMP JUMPDEST DUP2 PUSH2 0x336 JUMPI PUSH0 SWAP1 POP PUSH2 0x3E4 JUMP JUMPDEST DUP2 PUSH1 0x1 DUP2 EQ PUSH2 0x34C JUMPI PUSH1 0x2 DUP2 EQ PUSH2 0x356 JUMPI PUSH2 0x385 JUMP JUMPDEST PUSH1 0x1 SWAP2 POP POP PUSH2 0x3E4 JUMP JUMPDEST PUSH1 0xFF DUP5 GT ISZERO PUSH2 0x368 JUMPI PUSH2 0x367 PUSH2 0x1BE JUMP JUMPDEST JUMPDEST DUP4 PUSH1 0x2 EXP SWAP2 POP DUP5 DUP3 GT ISZERO PUSH2 0x37F JUMPI PUSH2 0x37E PUSH2 0x1BE JUMP JUMPDEST JUMPDEST POP PUSH2 0x3E4 JUMP JUMPDEST POP PUSH1 0x20 DUP4 LT PUSH2 0x133 DUP4 LT AND PUSH1 0x4E DUP5 LT PUSH1 0xB DUP5 LT AND OR ISZERO PUSH2 0x3BA JUMPI DUP3 DUP3 EXP SWAP1 POP DUP4 DUP2 GT ISZERO PUSH2 0x3B5 JUMPI PUSH2 0x3B4 PUSH2 0x1BE JUMP JUMPDEST JUMPDEST PUSH2 0x3E4 JUMP JUMPDEST PUSH2 0x3C7 DUP5 DUP5 DUP5 PUSH1 0x1 PUSH2 0x2C8 JUMP JUMPDEST SWAP3 POP SWAP1 POP DUP2 DUP5 DIV DUP2 GT ISZERO PUSH2 0x3DE JUMPI PUSH2 0x3DD PUSH2 0x1BE JUMP JUMPDEST JUMPDEST DUP2 DUP2 MUL SWAP1 POP JUMPDEST SWAP4 SWAP3 POP POP POP JUMP JUMPDEST PUSH0 PUSH2 0x3F5 DUP3 PUSH2 0xFB JUMP JUMPDEST SWAP2 POP PUSH2 0x400 DUP4 PUSH2 0xFB JUMP JUMPDEST SWAP3 POP PUSH2 0x42D PUSH32 0xFFFFFFFFFFFFFFFFFFFFFFFFFFFFFFFFFFFFFFFFFFFFFFFFFFFFFFFFFFFFFFFF DUP5 DUP5 PUSH2 0x31A JUMP JUMPDEST SWAP1 POP SWAP3 SWAP2 POP POP JUMP INVALID LOG2 PUSH5 0x6970667358 0x22 SLT KECCAK256 RETURNDATACOPY 0xD 0xB0 PUSH2 0x7F2F 0x2E SAR 0xC2 DUP9 OR DUP6 MSTORE8 0xDE 0xC 0xF PUSH4 0xD2973418 0xE SWAP14 PUSH10 0x95124B60894E9C896473 PUSH16 0x6C634300081A00330000000000000000 "
		},
		"gasEstimates": {
			"creation": {
				"codeDepositCost": "226200",
				"executionCost": "267",
				"totalCost": "226467"
			},
			"external": {
				"CalculatedInterest()": "infinite",
				"getValue()": "2432",
				"setValues(uint256,uint256,uint256,uint256)": "infinite"
			}
		},
		"methodIdentifiers": {
			"CalculatedInterest()": "1beb7d7e",
			"getValue()": "20965255",
			"setValues(uint256,uint256,uint256,uint256)": "862b6683"
		}
	},
	"abi": [
		{
			"inputs": [],
			"name": "CalculatedInterest",
			"outputs": [],
			"stateMutability": "nonpayable",
			"type": "function"
		},
		{
			"inputs": [],
			"name": "getValue",
			"outputs": [
				{
					"internalType": "uint256",
					"name": "",
					"type": "uint256"
				}
			],
			"stateMutability": "view",
			"type": "function"
		},
		{
			"inputs": [
				{
					"internalType": "uint256",
					"name": "_principal",
					"type": "uint256"
				},
				{
					"internalType": "uint256",
					"name": "_rate",
					"type": "uint256"
				},
				{
					"internalType": "uint256",
					"name": "_time",
					"type": "uint256"
				},
				{
					"internalType": "uint256",
					"name": "_n",
					"type": "uint256"
				}
			],
			"name": "setValues",
			"outputs": [],
			"stateMutability": "nonpayable",
			"type": "function"
		}
	]
}