{
	"data": {
		"bytecode": {
			"linkReferences": {},
			"object": "6080604052348015600e575f80fd5b5060055f81905550600a600181905550600f600281905550610187806100335f395ff3fe608060405234801561000f575f80fd5b506004361061003f575f3560e01c8063984d0f9014610043578063a531f36a1461004d578063f2c9ecd81461006b575b5f80fd5b61004b610089565b005b6100556100a4565b60405161006291906100d8565b60405180910390f35b6100736100aa565b60405161008091906100d8565b60405180910390f35b600160025f82825461009b919061011e565b92505081905550565b60025481565b5f6002546001546100bb919061011e565b905090565b5f819050919050565b6100d2816100c0565b82525050565b5f6020820190506100eb5f8301846100c9565b92915050565b7f4e487b71000000000000000000000000000000000000000000000000000000005f52601160045260245ffd5b5f610128826100c0565b9150610133836100c0565b925082820190508082111561014b5761014a6100f1565b5b9291505056fea26469706673582212203fd47b41e20ecf2747df3fff938afa20b15fd9cb5dd26dad0f92d3c61a9e9c6b64736f6c634300081a0033",
			"opcodes": "PUSH1 0x80 PUSH1 0x40 MSTORE CALLVALUE DUP1 ISZERO PUSH1 0xE JUMPI PUSH0 DUP1 REVERT JUMPDEST POP PUSH1 0x5 PUSH0 DUP2 SWAP1 SSTORE POP PUSH1 0xA PUSH1 0x1 DUP2 SWAP1 SSTORE POP PUSH1 0xF PUSH1 0x2 DUP2 SWAP1 SSTORE POP PUSH2 0x187 DUP1 PUSH2 0x33 PUSH0 CODECOPY PUSH0 RETURN INVALID PUSH1 0x80 PUSH1 0x40 MSTORE CALLVALUE DUP1 ISZERO PUSH2 0xF JUMPI PUSH0 DUP1 REVERT JUMPDEST POP PUSH1 0x4 CALLDATASIZE LT PUSH2 0x3F JUMPI PUSH0 CALLDATALOAD PUSH1 0xE0 SHR DUP1 PUSH4 0x984D0F90 EQ PUSH2 0x43 JUMPI DUP1 PUSH4 0xA531F36A EQ PUSH2 0x4D JUMPI DUP1 PUSH4 0xF2C9ECD8 EQ PUSH2 0x6B JUMPI JUMPDEST PUSH0 DUP1 REVERT JUMPDEST PUSH2 0x4B PUSH2 0x89 JUMP JUMPDEST STOP JUMPDEST PUSH2 0x55 PUSH2 0xA4 JUMP JUMPDEST PUSH1 0x40 MLOAD PUSH2 0x62 SWAP2 SWAP1 PUSH2 0xD8 JUMP JUMPDEST PUSH1 0x40 MLOAD DUP1 SWAP2 SUB SWAP1 RETURN JUMPDEST PUSH2 0x73 PUSH2 0xAA JUMP JUMPDEST PUSH1 0x40 MLOAD PUSH2 0x80 SWAP2 SWAP1 PUSH2 0xD8 JUMP JUMPDEST PUSH1 0x40 MLOAD DUP1 SWAP2 SUB SWAP1 RETURN JUMPDEST PUSH1 0x1 PUSH1 0x2 PUSH0 DUP3 DUP3 SLOAD PUSH2 0x9B SWAP2 SWAP1 PUSH2 0x11E JUMP JUMPDEST SWAP3 POP POP DUP2 SWAP1 SSTORE POP JUMP JUMPDEST PUSH1 0x2 SLOAD DUP2 JUMP JUMPDEST PUSH0 PUSH1 0x2 SLOAD PUSH1 0x1 SLOAD PUSH2 0xBB SWAP2 SWAP1 PUSH2 0x11E JUMP JUMPDEST SWAP1 POP SWAP1 JUMP JUMPDEST PUSH0 DUP2 SWAP1 POP SWAP2 SWAP1 POP JUMP JUMPDEST PUSH2 0xD2 DUP2 PUSH2 0xC0 JUMP JUMPDEST DUP3 MSTORE POP POP JUMP JUMPDEST PUSH0 PUSH1 0x20 DUP3 ADD SWAP1 POP PUSH2 0xEB PUSH0 DUP4 ADD DUP5 PUSH2 0xC9 JUMP JUMPDEST SWAP3 SWAP2 POP POP JUMP JUMPDEST PUSH32 0x4E487B7100000000000000000000000000000000000000000000000000000000 PUSH0 MSTORE PUSH1 0x11 PUSH1 0x4 MSTORE PUSH1 0x24 PUSH0 REVERT JUMPDEST PUSH0 PUSH2 0x128 DUP3 PUSH2 0xC0 JUMP JUMPDEST SWAP2 POP PUSH2 0x133 DUP4 PUSH2 0xC0 JUMP JUMPDEST SWAP3 POP DUP3 DUP3 ADD SWAP1 POP DUP1 DUP3 GT ISZERO PUSH2 0x14B JUMPI PUSH2 0x14A PUSH2 0xF1 JUMP JUMPDEST JUMPDEST SWAP3 SWAP2 POP POP JUMP INVALID LOG2 PUSH5 0x6970667358 0x22 SLT KECCAK256 EXTCODEHASH 0xD4 PUSH28 0x41E20ECF2747DF3FFF938AFA20B15FD9CB5DD26DAD0F92D3C61A9E9C PUSH12 0x64736F6C634300081A003300 "
		},
		"gasEstimates": {
			"creation": {
				"codeDepositCost": "78200",
				"executionCost": "66468",
				"totalCost": "144668"
			},
			"external": {
				"getNumber()": "infinite",
				"getNumber2()": "infinite",
				"num3()": "2425"
			}
		},
		"methodIdentifiers": {
			"getNumber()": "f2c9ecd8",
			"getNumber2()": "984d0f90",
			"num3()": "a531f36a"
		}
	},
	"abi": [
		{
			"inputs": [],
			"name": "getNumber",
			"outputs": [
				{
					"internalType": "uint256",
					"name": "num",
					"type": "uint256"
				}
			],
			"stateMutability": "view",
			"type": "function"
		},
		{
			"inputs": [],
			"name": "getNumber2",
			"outputs": [],
			"stateMutability": "nonpayable",
			"type": "function"
		},
		{
			"inputs": [],
			"name": "num3",
			"outputs": [
				{
					"internalType": "uint256",
					"name": "",
					"type": "uint256"
				}
			],
			"stateMutability": "view",
			"type": "function"
		}
	]
}