{
	"data": {
		"bytecode": {
			"linkReferences": {},
			"object": "6080604052348015600e575f80fd5b506101ad8061001c5f395ff3fe608060405234801561000f575f80fd5b506004361061003f575f3560e01c80636ed28ed0146100435780638119c0651461005f578063acbcc56314610069575b5f80fd5b61005d60048036038101906100589190610103565b610088565b005b610067610099565b005b6100716100bd565b60405161007f929190610150565b60405180910390f35b815f81905550806001819055505050565b6001545f54185f819055506001545f54186001819055506001545f54185f81905550565b5f805f54600154915091509091565b5f80fd5b5f819050919050565b6100e2816100d0565b81146100ec575f80fd5b50565b5f813590506100fd816100d9565b92915050565b5f8060408385031215610119576101186100cc565b5b5f610126858286016100ef565b9250506020610137858286016100ef565b9150509250929050565b61014a816100d0565b82525050565b5f6040820190506101635f830185610141565b6101706020830184610141565b939250505056fea26469706673582212207cf950f824399471538fc9032de59f1a583e4a1fbb82f42ddf6041e8cd84615164736f6c634300081a0033",
			"opcodes": "PUSH1 0x80 PUSH1 0x40 MSTORE CALLVALUE DUP1 ISZERO PUSH1 0xE JUMPI PUSH0 DUP1 REVERT JUMPDEST POP PUSH2 0x1AD DUP1 PUSH2 0x1C PUSH0 CODECOPY PUSH0 RETURN INVALID PUSH1 0x80 PUSH1 0x40 MSTORE CALLVALUE DUP1 ISZERO PUSH2 0xF JUMPI PUSH0 DUP1 REVERT JUMPDEST POP PUSH1 0x4 CALLDATASIZE LT PUSH2 0x3F JUMPI PUSH0 CALLDATALOAD PUSH1 0xE0 SHR DUP1 PUSH4 0x6ED28ED0 EQ PUSH2 0x43 JUMPI DUP1 PUSH4 0x8119C065 EQ PUSH2 0x5F JUMPI DUP1 PUSH4 0xACBCC563 EQ PUSH2 0x69 JUMPI JUMPDEST PUSH0 DUP1 REVERT JUMPDEST PUSH2 0x5D PUSH1 0x4 DUP1 CALLDATASIZE SUB DUP2 ADD SWAP1 PUSH2 0x58 SWAP2 SWAP1 PUSH2 0x103 JUMP JUMPDEST PUSH2 0x88 JUMP JUMPDEST STOP JUMPDEST PUSH2 0x67 PUSH2 0x99 JUMP JUMPDEST STOP JUMPDEST PUSH2 0x71 PUSH2 0xBD JUMP JUMPDEST PUSH1 0x40 MLOAD PUSH2 0x7F SWAP3 SWAP2 SWAP1 PUSH2 0x150 JUMP JUMPDEST PUSH1 0x40 MLOAD DUP1 SWAP2 SUB SWAP1 RETURN JUMPDEST DUP2 PUSH0 DUP2 SWAP1 SSTORE POP DUP1 PUSH1 0x1 DUP2 SWAP1 SSTORE POP POP POP JUMP JUMPDEST PUSH1 0x1 SLOAD PUSH0 SLOAD XOR PUSH0 DUP2 SWAP1 SSTORE POP PUSH1 0x1 SLOAD PUSH0 SLOAD XOR PUSH1 0x1 DUP2 SWAP1 SSTORE POP PUSH1 0x1 SLOAD PUSH0 SLOAD XOR PUSH0 DUP2 SWAP1 SSTORE POP JUMP JUMPDEST PUSH0 DUP1 PUSH0 SLOAD PUSH1 0x1 SLOAD SWAP2 POP SWAP2 POP SWAP1 SWAP2 JUMP JUMPDEST PUSH0 DUP1 REVERT JUMPDEST PUSH0 DUP2 SWAP1 POP SWAP2 SWAP1 POP JUMP JUMPDEST PUSH2 0xE2 DUP2 PUSH2 0xD0 JUMP JUMPDEST DUP2 EQ PUSH2 0xEC JUMPI PUSH0 DUP1 REVERT JUMPDEST POP JUMP JUMPDEST PUSH0 DUP2 CALLDATALOAD SWAP1 POP PUSH2 0xFD DUP2 PUSH2 0xD9 JUMP JUMPDEST SWAP3 SWAP2 POP POP JUMP JUMPDEST PUSH0 DUP1 PUSH1 0x40 DUP4 DUP6 SUB SLT ISZERO PUSH2 0x119 JUMPI PUSH2 0x118 PUSH2 0xCC JUMP JUMPDEST JUMPDEST PUSH0 PUSH2 0x126 DUP6 DUP3 DUP7 ADD PUSH2 0xEF JUMP JUMPDEST SWAP3 POP POP PUSH1 0x20 PUSH2 0x137 DUP6 DUP3 DUP7 ADD PUSH2 0xEF JUMP JUMPDEST SWAP2 POP POP SWAP3 POP SWAP3 SWAP1 POP JUMP JUMPDEST PUSH2 0x14A DUP2 PUSH2 0xD0 JUMP JUMPDEST DUP3 MSTORE POP POP JUMP JUMPDEST PUSH0 PUSH1 0x40 DUP3 ADD SWAP1 POP PUSH2 0x163 PUSH0 DUP4 ADD DUP6 PUSH2 0x141 JUMP JUMPDEST PUSH2 0x170 PUSH1 0x20 DUP4 ADD DUP5 PUSH2 0x141 JUMP JUMPDEST SWAP4 SWAP3 POP POP POP JUMP INVALID LOG2 PUSH5 0x6970667358 0x22 SLT KECCAK256 PUSH29 0xF950F824399471538FC9032DE59F1A583E4A1FBB82F42DDF6041E8CD84 PUSH2 0x5164 PUSH20 0x6F6C634300081A00330000000000000000000000 "
		},
		"gasEstimates": {
			"creation": {
				"codeDepositCost": "85800",
				"executionCost": "133",
				"totalCost": "85933"
			},
			"external": {
				"returnNum1()": "infinite",
				"store(uint256,uint256)": "infinite",
				"swap()": "79098"
			}
		},
		"methodIdentifiers": {
			"returnNum1()": "acbcc563",
			"store(uint256,uint256)": "6ed28ed0",
			"swap()": "8119c065"
		}
	},
	"abi": [
		{
			"inputs": [],
			"name": "returnNum1",
			"outputs": [
				{
					"internalType": "uint256",
					"name": "",
					"type": "uint256"
				},
				{
					"internalType": "uint256",
					"name": "",
					"type": "uint256"
				}
			],
			"stateMutability": "view",
			"type": "function"
		},
		{
			"inputs": [
				{
					"internalType": "uint256",
					"name": "number1",
					"type": "uint256"
				},
				{
					"internalType": "uint256",
					"name": "number2",
					"type": "uint256"
				}
			],
			"name": "store",
			"outputs": [],
			"stateMutability": "nonpayable",
			"type": "function"
		},
		{
			"inputs": [],
			"name": "swap",
			"outputs": [],
			"stateMutability": "nonpayable",
			"type": "function"
		}
	]
}